:100000000C94A5070C94EC070C94EC070C94EC07EB
:100010000C94EC070C94EC070C94EC070C94EC0794
:100020000C94EC070C94EC070C94152A0C94D12931
:100030000C94B7310C94EC070C94EC070C94EC077F
:100040000C94EC070C94EC070C94EC070C94EC0764
:100050000C94EC070C9493310C94EC070C94EC0783
:100060000C94EC070C94EC070C94EC070C94EC0744
:100070000C94EC070C94EC070C94EC070C94EC0734
:100080000C94EC070C94EC070C94EC070C94EC0724
:100090000C94EC070C94EC070C94EC070C94EC0714
:1000A0000C94EC070C94EC070C94EC07000655FF3D
:1000B000FFFF00000000000600FFFFFF000000003F
:1000C000000680FFFFFF0000000000061CFFFFFF8E
:1000D000000000000631FF0974A101097515002612
:1000E000FF009520750881020976150026FF00950E
:1000F0002075089102C005010980A101850319013D
:100100002AB700150126B700950175108100C005BA
:100110000C0901A101850419012AA002150126A0DC
:1001200002950175108100C005010906A101850530
:10013000050719E029E715002501950875018102D9
:100140000507190029EF1500250195F075018102B9
:100150000508190129059505750191029501750399
:100160009101C00660FF0961A1010962150026FF27
:10017000009520750881020963150026FF0095206F
:1001800075089102C005010906A101050719E029BA
:10019000E715002501950875018102950175088113
:1001A000010507190029FF150026FF0095067508AF
:1001B0008100050819012905950575019102950130
:1001C00075039101C00A002575002E6E6B726F3A9F
:1001D00020000A002575002E737761705F626163ED
:1001E0006B736C6173685F6261636B73706163658D
:1001F0003A20000A002575002E737761705F6772E0
:100200006176655F6573633A20000A002575002EEC
:100210006E6F5F6775693A20000A002575002E73BE
:100220007761705F72616C745F726775693A200004
:100230000A002575002E737761705F6C616C745FC6
:100240006C6775693A20000A002575002E73776186
:10025000705F7263746C5F726775693A20000A00A0
:100260002575002E737761705F6C63746C5F6C67CB
:1002700075693A20000A002575002E636170736C61
:100280006F636B5F746F5F636F6E74726F6C3A2035
:10029000000A002575002E737761705F636F6E74BE
:1002A000726F6C5F636170736C6F636B3A20000AEE
:1002B0000025303258006B65796D61705F636F6E39
:1002C0006669672E7261773A20000A002575002E54
:1002D0006D6F7573653A20000A002575002E6B65F9
:1002E00079626F6172643A20000A002575002E6DF4
:1002F00061747269783A20000A002575002E656ED7
:1003000061626C653A20000A00253032580064654D
:100310006275675F636F6E6669672E7261773A20F8
:10032000000A0025750064656661756C745F6C6118
:100330007965723A20000A092D204D6167696320B2
:100340002D0A443A094465627567204D65737361EF
:10035000676520546F67676C650A583A094D617488
:10036000726978204465627567204D6F646520541A
:100370006F67676C65202D2053686F77206B6579F8
:100380007072657373657320696E206D6174726934
:100390007820677269640A4B3A094B6579626F612C
:1003A000726420446562756720546F67676C6520CE
:1003B0002D2053686F77206B657970726573732099
:1003C0007265706F72740A4D3A09446562756720F0
:1003D0004D6F75736520546F67676C650A563A09EF
:1003E00056657273696F6E0A533A09537461747576
:1003F000730A433A09416374697661746520436FF7
:100400006E736F6C65204D6F64650A46312D463101
:10041000303A0953776974636820746F204C6179AE
:10042000657220302D392028463130203D204C3057
:10043000290A302D393A0953776974636820746F3B
:10044000204C6179657220302D390A47524156455A
:100450003A0953776974636820746F204C61796539
:100460007220302028616C7465726E617465290A8F
:10047000423A094A756D7020746F20426F6F746C38
:100480006F616465720A4553433A094A756D70207D
:10049000746F20426F6F746C6F61646572202861A5
:1004A0006C7465726E617465290A453A0950726907
:1004B0006E7420454550524F4D2053657474696EDB
:1004C00067730A4253504143453A09436C65617270
:1004D00020454550524F4D0A4E3A094E4B524F203F
:1004E000546F67676C650A004743433A20382E34DF
:1004F0002E30204156522D4C4942433A20322E3064
:100500002E30204156525F415243483A2061767264
:10051000350A004F5054494F4E533A204C554641EE
:100520002045585452414B455920434F4E534F4C50
:100530004520434F4D4D414E44204E4B524F204C91
:10054000544F20343039360A004255494C443A2041
:1005500020284175672031382032303231290A0095
:100560005649443A20307843423130284B65656221
:10057000696F29205049443A20307831313333288B
:1005800042444E39205265762E203129205645525C
:100590003A203078303130300A000A092D20566573
:1005A0007273696F6E202D0A0074696D65725F72D7
:1005B000656164333228293A202530346C580A00AA
:1005C0006B65796D61705F636F6E6669672E6E6BC8
:1005D000726F3A2025580A006B6579626F61726408
:1005E0005F69646C653A2025580A006B6579626F13
:1005F0006172645F70726F746F636F6C3A2025581C
:100600000A00686F73745F6B6579626F6172645F13
:100610006C65647328293A2025580A000A092D20A0
:10062000537461747573202D0A003F004E4B524F76
:100630003A206F66660A004E4B524F3A206F6E0AA0
:10064000000A6D6F7573653A206F66660A000A6D61
:100650006F7573653A206F6E0A000A6B6579626F79
:100660006172643A206F66660A000A6B6579626F90
:100670006172643A206F6E0A000A6D617472697863
:100680003A206F66660A000A6D61747269783A20D2
:100690006F6E0A000A64656275673A206F66660AC3
:1006A000000A64656275673A206F6E0A000A0A4A9A
:1006B000756D70696E6720746F20626F6F746C6FF8
:1006C000616465722E2E2E2000433E2000436C652F
:1006D0006172696E6720454550524F4D0A0065654D
:1006E000636F6E6669673A0A004C25640A00000170
:1006F00001010101010101010202020202020202E2
:1007000002030303030303030304040404040404B3
:100710000505050505060606060607070707070877
:10072000080808090909090A0A0A0B0B0B0C0C0C2A
:100730000D0D0D0E0E0E0F0F0F10101111111212C4
:1007400013131414151516161717181819191A1A41
:100750001B1B1C1D1D1E1E1F2020212222232424A2
:10076000252626272829292A2B2C2D2D2E2F3031DE
:100770003232333435363738393A3B3C3D3E3F40F0
:100780004142434445464748494A4C4D4E4F5051DB
:100790005354555658595A5B5D5E5F616264656695
:1007A00068696B6C6D6F7072737577787A7B7D7E1C
:1007B0008082838587888A8C8E8F91939596989A6C
:1007C0009C9EA0A2A3A5A7A9ABADAFB1B3B5B7BA84
:1007D000BCBEC0C2C4C6C9CBCDCFD1D4D6D8DBDD58
:1007E000DFE2E4E7E9EBEEF0F3F5F8FAFDFF72671C
:1007F000626C69676874206D6F6465205B4E4F455D
:100800004550524F4D5D3A2025750A007267626C63
:1008100069676874206D6F6465205B454550524F71
:100820004D5D3A2025750A007267626C69676874CD
:1008300020656E61626C65205B454550524F4D5D91
:100840003A207267626C696768745F636F6E66698D
:10085000672E656E61626C65203D2025750A007209
:1008600067626C6967687420656E61626C65205BA5
:100870004E4F454550524F4D5D3A207267626C694C
:100880006768745F636F6E6669672E656E61626C20
:1008900065203D2025750A007267626C696768747F
:1008A0002064697361626C65205B4E4F4545505210
:1008B0004F4D5D3A207267626C696768745F636F61
:1008C0006E6669672E656E61626C65203D202575D8
:1008D0000A007267626C69676874207365742068C7
:1008E0007376205B4E4F454550524F4D5D3A202563
:1008F000752C25752C25750A007267626C6967680E
:10090000742073657420687376205B454550524FA0
:100910004D5D3A2025752C25752C25750A007267CA
:10092000626C69676874207261696E626F772073A8
:100930006574206873763A2025642C25642C256420
:100940002C25750A00FFAA7F55407267626C6967A3
:1009500068742074696D657220656E61626C65648F
:100960002E0A007267626C696768742074696D652D
:10097000722064697361626C652E0A002223252649
:1009800028292A2C2D2F3032333536383A3B3D3E3C
:100990004042434547494A4C4E5051535557595A86
:1009A0005C5E6062646668696B6D6F7173757779A0
:1009B0007B7D7F81838587898A8C8E90929496989F
:1009C0009A9C9E9FA1A3A5A7A8AAACAEAFB1B3B4B1
:1009D000B6B8B9BBBCBEBFC1C2C3C5C6C7C9CACB06
:1009E000CCCDCED0D1D2D2D3D4D5D6D7D7D8D9D9D1
:1009F000DADADBDBDBDCDCDCDCDCDDDDDDDDDCDC3A
:100A0000DCDCDCDBDBDBDADAD9D9D8D7D7D6D5D456
:100A1000D3D2D2D1D0CECDCCCBCAC9C7C6C5C3C222
:100A2000C1BFBEBCBBB9B8B6B4B3B1AFAEACAAA877
:100A3000A7A5A3A19F9E9C9A98969492908E8C8A2B
:100A400089878583817F7D7B79777573716F6D6B06
:100A50006968666462605E5C5A5957555351504EDE
:100A60004C4A4947454342403E3D3B3A3836353390
:100A700032302F2D2C2A2928262523220000115020
:100A80000000AE00AC00AB0004011601B300000092
:100A90001250000017013F00070117133E004A00E3
:100AA0000000135000002C0042001E002B02171300
:100AB000170100001050000004011801E2011E019E
:100AC0001F012001000000000000000000000000E5
:100AD0000000000000000000000000000000000016
:100AE00000000000000000007E0F00D4FFFFFFC7E1
:100AF0000000007800000000000000002A2B280001
:100B000000000000000000000000000000000029BC
:100B1000000000002C1E3420212224342627252EFC
:100B2000362D3738271E1F20212223242526333334
:100B3000362E37381F0405060708090A0B0C0D0E60
:100B40000F101112131415161718191A1B1C1D2F2C
:100B50003130232D350405060708090A0B0C0D0E4C
:100B60000F101112131415161718191A1B1C1D2F0C
:100B70003130354C7267626C6967687420646973E0
:100B800061626C65205B454550524F4D5D3A207265
:100B900067626C696768745F636F6E6669672E650C
:100BA0006E61626C65203D2025750A007267626C7B
:100BB0006967687420746F67676C65205B45455092
:100BC000524F4D5D3A207267626C696768745F636B
:100BD0006F6E6669672E656E61626C65203D2025CB
:100BE000750A0044454255473A2064697361626C56
:100BF00065642E0A0044454255473A20656E61629D
:100C00006C65642E0A000A092D20436F6E736F6CA9
:100C100065202D0A4553432F713A09717569740A8D
:100C2000003F00433E20004F6E6573686F743A20AA
:100C30006163746976653A2025640A000A002530EC
:100C4000325820006B6579626F6172645F72657003
:100C50006F72743A20006164645F6B65795F6269EA
:100C6000743A2063616E2774206164643A202530F1
:100C700032580A0064656C5F6B65795F6269743A2B
:100C80002063616E27742064656C3A2025303258E9
:100C90000A007267626C696768745F636F6E666989
:100CA000672E7370656564203D2025640A007267B5
:100CB000626C696768745F636F6E6669672E7661E0
:100CC0006C203D2025640A007267626C6967687455
:100CD0005F636F6E6669672E736174203D202564C3
:100CE0000A007267626C696768745F636F6E666939
:100CF000672E687565203D2025640A007267686C60
:100D0000696768745F636F6E6669672E6D6F64658F
:100D1000203D2025640A007267626C696768745F11
:100D2000636F6E6669672E656E61626C65203D203B
:100D300025640A007267626C696768745F636F6E2E
:100D400066696720454550524F4D3A0A0072676206
:100D50006C696768745F696E6974207267626C6938
:100D60006768745F636F6E6669672E6D6F64652078
:100D70003D20302E20577269746520646566617568
:100D80006C742076616C75657320746F20454550D6
:100D9000524F4D2E0A007267626C696768745F6912
:100DA0006E6974206565636F6E666967206973207C
:100DB0006E6F7420656E61626C65642E0A007267E6
:100DC000626C696768745F696E69742073746172BC
:100DD00074210A007267626C696768745F696E6982
:100DE000742063616C6C65642E0A00CA00C000B692
:100DF00000AC0000000A0025303862003A200025CF
:100E0000303258000A722F63203031323334353695
:100E1000370A001E0F0500047F3F1F64321464323E
:100E200014783C1E1E140A050A0025303258006B47
:100E30006579626F6172645F7365745F6C65643A53
:100E400020007267626C6967687420736574207330
:100E500070656564205B4E4F454550524F4D5D3A7D
:100E60002025750A005B735D004B6579626F6172C6
:100E7000642073746172742E0A005B435D005B44EE
:100E80005D005B535D005B575D005B525D000902D6
:100E90007B00040100A0FA09040000010301010025
:100EA0000921110100012240000705810308000A01
:100EB00009040100020300000009211101000122C0
:100EC000220007058203200001070503032000011B
:100ED00009040200010300000009211101000122A0
:100EE0006D000705840320000A09040300020300C3
:100EF00000000921110100012222000705850320BD
:100F00000001070505032000011201100100000087
:100F10000810CB3311000101020001180342004404
:100F2000004E00390020005200650076002E00209F
:100F300000310000000E034B00650065006200698F
:100F4000006F000000040309040011241FBECFEF4E
:100F5000DAE0DEBFCDBF04B603FE27C08091B80241
:100F60009091B902A091BA02B091BB028730904B28
:100F7000A740B04BD1F41092B8021092B90210926F
:100F8000BA021092BB0214BE84B7877F84BF0FB62B
:100F9000F894A89580916000886180936000109219
:100FA00060000FBEE0E0F8E3099522E0A6EAB1E0B8
:100FB00001C01D92A83BB207E1F711E0A0E0B1E04B
:100FC000E2EAF7E602C005900D92A63AB107D9F71A
:100FD0000E94422B0C9459330C940000FF93EF9322
:100FE000E091A601F091A701309709F00995EF91E2
:100FF000FF910895FC018591803011F0EFDFFBCF68
:101000000895FF27E0E230E247FF0CC0419597FFCB
:1010100009C0EDE26095709580959095611D711DF8
:10102000811D911D27FF02C0219530E350E2AA27C0
:10103000660F771F881F991FAA1FA41710F0A41B03
:1010400063955A95A9F7AA3008F0A95FA05DAF9300
:10105000F395611571058105910541F7ED3211F4A4
:10106000EF93F395F21718F43F93F395FBCF8F911D
:10107000B5DFFA95E1F70895E991F991859180300E
:1010800021F0853219F0AADFF9CF089520E0E89425
:1010900055915532C1F3503311F4689455915A3338
:1010A00048F4505390F3220F022E220F220F200DEE
:1010B000250FF4CF0EF4219589919991533619F3A8
:1010C000533729F1533559F1BC0188279927E89402
:1010D0005C3621F48991999168945591543639F48C
:1010E00046EF7EF077FF0DC08FEF9FEF0AC05537B8
:1010F0004AE039F0583540E121F0523642E009F03B
:101100000895FF93EF937DDFEF91FF91B7CFFF93AA
:10111000EF93FC0181918030B9F360DFFBCFFF9347
:10112000EF9368DFF1CFDF93CF93CDB7DEB725968E
:10113000A3DFCF91DF910895E8EDF0E080818E7F0D
:1011400080831092E2001092DA001092E100A0EE8B
:10115000B0E08C9181608C9380818F77808319BC03
:10116000A7EDB0E08C918E7F8C9380818F7E808301
:101170001092780208952091E4003091E50095E600
:10118000A9012091EC00822F817020FF06C0809180
:10119000E80080FF06C080E008952091E80022FD6D
:1011A0001AC080919D02882389F0853089F0809152
:1011B000EB0085FD0FC02091E4003091E50042175F
:1011C0005307F9F29150E1F684E0089582E0089522
:1011D00083E0089581E00895EF92FF920F931F93AB
:1011E000CF937C018B010E94BB08C82F811117C0CF
:1011F0008091E80085FD0BC08091E8008E77809398
:10120000E8000E94BB08882399F3C82F08C0F701A3
:1012100081917F018093F1000150110949F78C2FD2
:10122000CF911F910F91FF90EF90089580919F02B1
:1012300087FF13C08091E80082FF06C08091E8001C
:101240008B778093E80004C080919D028111F2CFDA
:10125000089580919D028823D9F38091E80080FF52
:10126000F8CF8091E8008E77ECCF982F9093E9002B
:10127000242F762F50E0891731F07091EC002091E7
:10128000ED005091F00021FD07C09F5F973071F78E
:101290008093E90081E008953091EB003E7F309328
:1012A000EB003091ED003D7F3093ED003091EB008D
:1012B00031603093EB007093EC002093ED0050937D
:1012C000F0002091EE0027FDE0CF80E00895CF925E
:1012D000DF92EF92FF920F931F93CF93DF93C8EDAE
:1012E000D0E088818F7E8883E7EDF0E080818160A7
:1012F000808384E082BF81E08093780288818E7F42
:10130000888302EE10E0F80110821092DA0081EE7C
:10131000C82ED12CF601108288818F77888388812E
:101320008068888388818F7D888319BC10929D0294
:1013300010929E0210929C0210929B0290EEE92E57
:10134000F12CF70180818B7F808388818160888385
:1013500042E060E080E00E943509F60180818E7FE6
:101360008083F801808181608083808188608083B0
:10137000F70180818E7F8083888180618883DF91FF
:10138000CF911F910F91FF90EF90DF90CF90089534
:10139000FC018091A5029091A60286179707A0F004
:1013A0006115710529F49091E8009E779093E8000B
:1013B00090E06115710551F4911108C08091E80029
:1013C00082FF34C080E00895BC01F2CF80919D027D
:1013D0008823C1F18530C1F18091E80083FD30C0E0
:1013E0008091E80082FDEACF8091E80080FFE1CFA4
:1013F0008091F3002091F200382F6115710519F0EA
:101400002830310558F091E02830310509F090E09E
:101410002091E8002E772093E800CBCF8191809334
:10142000F100615071092F5F3F4FE7CF80919D021E
:10143000882341F0853041F08091E80083FFBECFE2
:1014400081E0089582E0089583E008950895089565
:1014500080917A02089587E797E790930108809337
:10146000000888E19AE00FB6F894A8958093600090
:101470000FBE90936000FFCF2FB7F8946091A70242
:101480007091A8028091A9029091AA022FBF08959D
:101490002FB7F8948091A7029091A802A091A90279
:1014A000B091AA022FBF089580914A028111109233
:1014B0004A020895E92FEE0F9E0F890F982F97701B
:1014C00086958695869525E0829FF0011124E45C3F
:1014D000FD4F50E040E080E0219130E0092E02C055
:1014E000369527950A94E2F721703327042E01C020
:1014F000220F0A94EAF7822B4F5F5F4F4530510568
:1015000059F70895E92FEE0F9E0F890F982F9770C6
:1015100041E001C0440F9A95EAF786958695869535
:1015200095E0899FF0011124E45CFD4F30E020E05C
:1015300070E05191DF011197CB01022E02C0969508
:1015400087950A94E2F78170819585278423852702
:101550008C932F5F3F4F2530310559F70895409107
:10156000AE025091AF026091B0027091B10241158C
:1015700051056105710529F441E0811140E0842F96
:10158000089504C076956795579547958A95D2F743
:101590004170F5CF80913B0290910A02981301C0EF
:1015A00008958F5F8770FACF209100023091010279
:1015B0002817390771F09093010280930002E0919F
:1015C0005802F0915902309721F00084F185E02D06
:1015D000099408952091FE013091FF0128173907E1
:1015E00071F09093FF018093FE01E0915802F09119
:1015F0005902309721F00680F781E02D0994089573
:10160000E0915802F0915902309721F00190F08159
:10161000E02D099480E00895FA01811101C0FB01D9
:10162000099480916E02982F9E7F29F481708260C8
:1016300080936E0208958635E8F381708465F8CF53
:10164000AF92BF92DF92EF92FF920F931F93CF93CF
:10165000DF93082F162FE901E42FF0E0E251F94F54
:10166000611110C0E4915E2F4E2F4983E8835A83A5
:10167000DF91CF911F910F91FF90EF90DF90BF907E
:10168000AF900895E62EF12C4491D42EE42FF0E093
:1016900026E0829FC00111242FEF30E0B9010E94A3
:1016A000F831802F90E0880F991F55E5569FD001A3
:1016B000579FB00D11248A1B9B0B982F990F890FF0
:1016C0005901AE18BF08AE9ED001AF9EB00DBE9EB0
:1016D000B00D11245B2F189F80011124012F1127B9
:1016E0005901A01AB10AAE9E8001AF9E100DBE9E98
:1016F000100D11245901A81AB108AE9CC001AF9C6D
:10170000900DBE9C900D1124892F9927281B390B11
:101710002E9FC0012F9F900D3E9F900D1124E92F09
:1017200062307105A1F050F46115710509F49DCF87
:101730006130710581F0EB2F512F97CF6430710527
:1017400069F080F06630710509F48FCFF4CFE42F93
:101750004B2F592F8ACFE42F412F87CFEB2F542FB8
:10176000492F83CF4B2F5D2DE12F7FCFEF92FF923B
:101770000F931F93CF93DF93E2E5F2E069E771E007
:10178000C0E001E010E07B0150E040E030E0D70134
:101790002D917D012F3FB9F0822F82958F7090E0BF
:1017A000DC0190968C9190E02F7002C09595879502
:1017B0002A95E2F780FD46C0C801042E01C0880FBB
:1017C0000A94EAF7382B4F5F5F4F43305105F9F623
:1017D00080818317C9F1308381E0C82B31966D5F1A
:1017E0007F4FB1E062387B0771F6CC2379F181E05D
:1017F0008093CA010E94480A9093C9018093C8014E
:101800002091C8013091C9014FB7F8948091A70287
:101810009091A802A091A902B091AA024FBF821B89
:10182000930B0497B8F080915202809373028091D9
:101830005302809374028091540280937502109237
:10184000CA0108C080E0BECF80E0C7CF8091CA0146
:101850008111D6CF8C2FDF91CF911F910F91FF90E7
:10186000EF9008959091500292FF06C0282F2871A2
:101870002830F9F4877F846093FF06C0282F2871F1
:101880002831F1F4877E84612091510220FF06C047
:10189000382F38713830D9F4877F816021FF06C036
:1018A000282F28712831D1F4877E816194FD877EAD
:1018B0000895282F24712430F9F68B7F8860DCCFBF
:1018C000282F2471243101F78B7E8861DDCF382FDA
:1018D0003171313019F78E7F8860E0CF282F217168
:1018E000213121F78E7E8861E1CF829590E09C01C5
:1018F000220F331F220F331F2C7C959587959595CA
:1019000087958373282B30E0C901880F991F8A7A45
:10191000359527952575822B0895CF9384E090E027
:101920000E94AE32C82F82E290E00E94AE32982F21
:101930008C2FCF9108950F931F93CF93DF93C42FD4
:10194000D0E0CC0FDD1F26E0629FC00DD11D112419
:1019500032E1839FC00DD11D1124CE0187960E94D4
:10196000AE32082F10E0102F0027CE0188960E947B
:10197000AE329801282BC901DF91CF911F910F91B1
:101980000895462F843038F4733028F4633018F407
:10199000672F0C949B0C90E080E00895CF93DF9329
:1019A0000E94C10CEC0182389105A9F1D8F5813370
:1019B000910509F496C048F58932910509F48AC069
:1019C0008A9709F495C0C11522E5D20708F0B6C080
:1019D000C11531E5D30708F026C1C83ED10508F08E
:1019E0009CC0C03ED10560F5C83AD10508F087C05B
:1019F000C53AD10508F0EFC0C130D10509F12097F3
:101A0000F9F0C430D105E0F440C08533910509F404
:101A10005AC0C997C1F680915002837089F0C0EE18
:101A2000D0E00EC0833E910599F170F4803E91059F
:101A300001F1823E910539F68091500282FD21C06C
:101A4000CE01DF91CF910895863E910561F1873EE9
:101A5000910571F1843E910509F0B5CF8091510255
:101A600081FFEECF80915002C7EED0E084FD0DC023
:101A7000E7CF8091500280FD07C19091510290FF05
:101A8000DFCFC3EED0E084FFDBCFD0E0C0E0D8CF23
:101A90008091500282FDFBC09091510290FDBFCF1A
:101AA00084FFCECFF2CF8091500283FDDDCFC8CF2F
:101AB0008091500283FDEEC09091510291FFF0CFD2
:101AC000C4EED0E0BDCF8091500285FFB9CFC9E20E
:101AD000D0E0B6CF8091500285FFB2CFC5E3D0E011
:101AE000AFCF8091500286FFABCFCAE2D0E0A8CF43
:101AF0008091500286FFA4CFC1E3D0E0A1CFCF3BBD
:101B0000D10518F6C85AD0E0CC0FDD1FC55BDE4FFB
:101B10000990D881C02DD46493CFC11540E5D40776
:101B200008F064C0C11580E4D80708F05CC0CE019D
:101B30009A9581159F4108F483CFA7CFC11536E54B
:101B4000D30718F5C11545E5D40708F084C0C115C1
:101B500084E5D80708F07AC09C2F969596959E014B
:101B600023703327C115D34508F462C0C1E0D0E02B
:101B700002C0CC0FDD1F2A95E2F730E2939FC0012F
:101B80001124C82BD92BDA685BCFC1158AE5D80799
:101B900078F4C11599E5D90708F068C0C11528E5A2
:101BA000D20708F472CFDC2FCC27C06FD06A48CFA1
:101BB000CE0190568115904208F067CF8D2F8F711E
:101BC0000E94320C90E0982F882788279F719C01F3
:101BD0002C2BE90149C0C55AD0E0C85BDE4FC88153
:101BE000D0E0D0642DCFDF70D06A2ACFCE01E4E000
:101BF00096958795EA95E1F783702C2F2695269583
:101C0000237040E2249F90011124382B8C2F837085
:101C1000C1E0D0E002C0CC0FDD1F8A95E2F7C22BF5
:101C2000D32BDC680DCFDC2FCC27C16FD06A08CF57
:101C3000C1E0D0E002C0CC0FDD1F2A95E2F720E220
:101C4000929FC0011124C82BD92BEBCFDC2FCC27BE
:101C5000C46FD06AF5CE8C2F0E94320CC82FD0E012
:101C6000DC2FCC27CC27DF71D062EACE8C2F8F708F
:101C70000E94320C34E0D695C7953A95E1F7CF70C3
:101C80009C2FEC01D069DCCEC9E3D0E0D9CEC2EE06
:101C9000D0E0D6CEC6EED0E0D3CEBF92CF92DF92C8
:101CA000EF92FF920F931F93CF93DF938C01C0901D
:101CB000AE02D090AF02E090B002F090B1028091FD
:101CC0004B0290914C02A0914D02B0914E02C82A55
:101CD000D92AEA2AFB2ACFE1D0E0BC2ED701C601DF
:101CE0000C2E04C0B695A795979587950A94D2F7C0
:101CF00080FD0EC0219788F7B12C8B2DDF91CF91FD
:101D00001F910F91FF90EF90DF90CF90BF900895BB
:101D1000B8018C2F0E94CE0C019761F3EECFCF93C8
:101D2000DF93EC010E944D0EBE01DF91CF910C9428
:101D3000CE0C0E948F0E292F2F7092959F7092507B
:101D40009E3078F4E92FF0E0E55AFC4C0C942032F8
:101D5000803F19F020F4883E20F481E00895843F0C
:101D6000E1F380E00895883EC0F3813FD1F7F5CFDD
:101D7000822F86958695869508956F927F928F9291
:101D80009F92AF92BF92CF92DF92EF92FF920F930A
:101D90001F93CF93DF938CE7C82E8AE0D82E9FE362
:101DA000E92EF12CE701629736011BC0F501859001
:101DB0009490692DC8010E94C232682DC801019615
:101DC0000E94C23282E0A80EB11C0E5F1F4FC017E6
:101DD000D10761F786E0680E711C2696CE15DF05E7
:101DE00029F08E01065011095301E0CF7E0182E1F6
:101DF000E80EF11C82E1C80ED11C87E8E816F10458
:101E000089F6DF91CF911F910F91FF90EF90DF90B6
:101E1000CF90BF90AF909F908F907F906F900895DC
:101E2000CF93DF93CFE6D0E060E0CE010E94C232D4
:101E30002196C11584E0D807B9F7DF91CF910895B5
:101E400020911C01222351F12091500227FF26C02E
:101E5000E62FE695E695E695EE3178F4E80FF92F52
:101E6000F11D677021E030E001C0220F6A95EAF7AA
:101E70002095828128232283089580916D0280FF1E
:101E800019C01F926F9384E79CE09F938F930E94E9
:101E900093080F900F900F900F900895FC013296C9
:101EA00008962191621303C0DF0111971C92E81775
:101EB000F907B9F7089520911C01222349F12091D7
:101EC000500227FF25C0E62FE695E695E695EE3110
:101ED00070F4E80FF92FF11D677021E030E001C0C8
:101EE000220F6A95EAF78281822B8283089580917E
:101EF0006D0280FF1EC01F926F9386E59CE09F934A
:101F00008F930E9493080F900F900F900F90089559
:101F1000FC0132962FEF30E04191641751F02F3FD2
:101F200019F4411101C0232F3F5F3630A9F72F3F2D
:101F300009F40895820F911D27FD9A95FC01628393
:101F40000895EF92FF920F931F93CF93DF938091A9
:101F5000490290914802892B90914702892B8093E6
:101F6000A80190914A029923B1F0892B8093A8018E
:101F700080911C01882309F45DC08091500287FF85
:101F800059C08EE1EAEAF1E090E0815008F054C0D7
:101F900091110E94540AE0915802F0915902309731
:101FA00009F450C080911C01882359F0809150029F
:101FB00087FF07C08091A8018093A90185E08093E5
:101FC000A8010280F381E02D88EA91E009958091D3
:101FD0006D0282FF37C080FF04C084E49CE00E9451
:101FE000FA07C8EAD1E080EBE82E81E0F82E0EE394
:101FF0001CE080916D0280FF0BC088811F928F933F
:102000001F930F930E9493080F900F900F900F90C3
:102010002196EC16FD0669F780916D0280FF12C0D3
:102020008CE39CE0DF91CF911F910F91FF90EF9097
:102030000C94FA0786E0A6CF2191222309F4A5CFBC
:102040009F5FA3CFDF91CF911F910F91FF90EF90F2
:10205000089590E080E00E94EA0A90E080E00E940B
:10206000D40A10924802109247020C94A10F609378
:102070004B0270934C0280934D0290934E020C944D
:102080002910882341F080959091490289238093FB
:1020900049020C94A10F0895882339F090914902C8
:1020A000982B909349020C94A10F0895882379F1FD
:1020B0009CEF980F913A38F4682F88EA91E00E94DB
:1020C000200F0C94A10F90E2980F983088F487703D
:1020D00021E030E0A90102C0440F551F8A95E2F7C4
:1020E000CA01809590914902892380934902E9CFE2
:1020F0009BE5980F933020F490E080E00C94EA0A7E
:10210000885A873120F490E080E00C94D40A089536
:10211000CF93DF93D82FC0915102C2FB882780F95B
:102120008D17F9F0D0FBC2F9C093510260915002B3
:1021300084E090E00E94C2326C2F82E290E00E9424
:10214000C23280916D0280FF0CC01F92DF9387E244
:102150009CE09F938F930E9493080F900F900F9095
:102160000F90DF91CF9108951092640280916D02DB
:1021700080FF08C083E699E09F938F930E949308A5
:102180000F900F9008959FB7F894109276029FBF1A
:1021900090919D02943009F048C02091E9002F7081
:1021A0003091EC00932F917030FD90E8922B25E058
:1021B0002093E9002091EB0020FF34C02091EE0035
:1021C00027FF30C020914F02222321F02091E80008
:1021D00025FF28C010924F0226E03091E80035FF1D
:1021E00014C08093F1008091E80085FD27C08091A4
:1021F000E80080FFFCCF8091E8008E778093E800B4
:102200009F709093E90080E0089530919D023430F2
:1022100049F43091EB0035FD05C0215041F481E0D7
:1022200080934F029F709093E9008FEF0895EFE93C
:10223000FFE03197F1F700C00000CFCF8FB7F894DF
:1022400021E0209376028FBFDBCFCF93DF9300D0C6
:102250000F92CDB7DEB790919D02943011F589832E
:102260007B836A839093E9008FEF9091E80081501F
:1022700095FD06C095ED9A95F1F700008111F5CF17
:102280008091E80085FF0DC050E040E063E070E021
:10229000CE0101960E94EC088091E8008E77809331
:1022A000E8000F900F900F90DF91CF910895BC013F
:1022B00084E00C942511BC0183E00C942511CF938C
:1022C000DF93EC0180911C018823B1F180915002D1
:1022D00087FF32C060E284E08093E9008FEF909145
:1022E000E800815095FD06C095ED9A95F1F7000044
:1022F0008111F5CF8091E80085FF1BC080911C0102
:1023000070E050E040E0811104C050E040E068E03F
:1023100070E0CE010E94EC088091E8008E778093F7
:10232000E80080E2FE01ABE7B2E001900D928A95F1
:10233000E1F7DF91CF91089568E081E0CDCFCF92B2
:10234000DF92EF92FF926B017C010E94110BB701AB
:10235000A60188E090E0FF90EF90DF90CF900C9482
:10236000D43280917202882319F0815080937202D6
:1023700060916E0270916F02809170029091710273
:102380000C949F1180917202833018F48F5F8093B8
:10239000720260916E0270916F0280917002909152
:1023A00071020C949F11EEE6F2E083E080831182CB
:1023B0008FEF828383831482608171818281938114
:1023C0000C949F111092490280911C01EAEAF1E0FD
:1023D000882359F08091500287FF07C08EE1DF010A
:1023E0001D928A95E9F70C94291086E0F8CF1F9387
:1023F000CF93DF93CDB7DEB7AA970FB6F894DEBFC1
:102400000FBECDBF8FE992E02091F100DC012D934A
:10241000CD01B2E0873A9B07B9F78091A0028330E3
:1024200009F471C0B8F4813009F448C0823009F46D
:10243000B2C08091E80083FF3AC180919F029091E1
:10244000A0029A3008F033C1E92FF0E0E759FC4CC4
:102450000C9420328A3009F48DC08B3009F470C09E
:10246000893039F780919F02813219F78091A30258
:102470009091A402009711F00297D9F68091E8009C
:10248000877F8093E8008091E80082FF37C09091B9
:10249000F3008091F200029729F48091F1008B7F84
:1024A000813021F48091F10080937A028091E800DC
:1024B0008B778093E8000E941609BBCF80919F0222
:1024C000813A09F0B6CF8091E800877F8093E800D9
:1024D0008091A3029091A402892B61F460E28BE7C2
:1024E00092E070E00E94C8098091E8008B778093A9
:1024F000E8009FCF60E090E080E0F3CF80919D0204
:102500008111C1CF96CF80919F02813A09F091CF7E
:102510008091A3029091A402892B09F08ACF809127
:10252000E800877F8093E8008091E80080FFFCCF7F
:1025300080911C018093F1008091E8008E77B9CFE3
:1025400080919F02813209F074CF8091A302909113
:10255000A402892B09F06DCF8091E800877F8093DA
:10256000E8000E9416098091A10280931C010E943C
:10257000E2115FCF80919F02813209F05ACF8091A2
:10258000E800877F8093E8000E9416098091A202EC
:10259000809379024ECF80919F02813A09F049CF12
:1025A0008091E800877F8093E8008091E80080FFB9
:1025B000FCCF80917902BECF803899F0823809F043
:1025C00076C08091A3028F70873008F070C080932E
:1025D000E9008091EB0085FB882780F91092E900E3
:1025E00006C080919B0290919C0291118260909113
:1025F000E800977F9093E8008093F1001092F1003B
:102600008091E8008E77BAC1882309F4A7C182308F
:1026100009F04DC08091A1028111ABC18091A3024C
:102620008F702FEF280F263008F041C08093E9000B
:102630002091EB0020FF9DC1933031F48091EB009D
:1026400080628093EB0095C19091EB009061909334
:10265000EB0021E030E001C0220F8A95EAF72093D9
:10266000EA001092EA008091EB008860EACF8111C5
:102670001EC01091A1021F778091E3008078812B0A
:102680008093E3008091E800877F8093E8000E94B8
:1026900016098091E80080FFFCCF8091E3008068FC
:1026A0008093E30082E0111183E080939D0280918A
:1026B000E80083FF0AC08091E800877F8093E800EC
:1026C0008091EB0080628093EB00AA960FB6F8949D
:1026D000DEBF0FBECDBFDF91CF911F91089580580F
:1026E000823028F72091A1023091A2022C3DE3E034
:1026F0003E07A1F583E08A838AE289834FB7F89485
:10270000DE01139620E03EE051E2E32FF0E050932B
:102710005700E49120FF03C0E295EF703F5FEF7038
:102720008E2F90E0EA30C0F0C7968D939D932F5F77
:10273000243159F74FBF8091E800877F8093E800EC
:102740006AE270E0CE0101960E94C8098091E8001B
:102750008B778093E800ABCFC096E7CF8091A30240
:102760009091A402432F55274330510509F44AC0E4
:1027700078F54130510509F47AC08BE790E0EEE836
:10278000FEE04230510509F092CF2091E800277F0A
:102790002093E8002091A5023091A60282179307AA
:1027A00008F49C0140E02115310509F065C0411194
:1027B00063C08091E80082FDC9CF80919D0288238B
:1027C00029F2853019F28091E80083FFF2CFBECF65
:1027D0004132510509F43CC04232510509F067CF3E
:1027E0008430910508F063CFFC01EE0FFF1FEA561D
:1027F000FE4F0190F081E02D8E569E4FDC018C91B2
:1028000090E01AC0332721303105D1F02115310570
:1028100061F02230310509F04ACFEBE1FFE0E491AD
:102820008E2F90E0EBE1FFE007C0E5E4FFE0E491EC
:102830008E2F90E0E5E4FFE0009709F438CFA5CFB4
:10284000E5E3FFE0E4918E2F90E0E5E3FFE0F4CFD5
:102850008430910508F02BCF880F991FFC01E256B8
:10286000FE4F0190F081E02D89E090E08ECF82E173
:1028700090E0E9E0FFE089CF80919D02882309F490
:1028800065CF853009F462CF8091E80083FD5ECF8B
:102890008091E80082FD8DCF8091E80080FF83CF9A
:1028A0009091F3008091F2002115310519F08830E4
:1028B000910550F041E0089709F040E08091E80070
:1028C0008E778093E8006FCF44914093F10031966A
:1028D000215031090196E8CF803809F0E8CE809187
:1028E000E800877F8093E80080919E028093F1004A
:1028F00087CE8111DCCE1091A102123008F0D7CE24
:102900008091E800877F8093E80010939E020E94E8
:102910001609112311F084E005C08091E30087FDC2
:10292000FACF81E080939D0242E061EC81E00E9459
:10293000350942E261EC84E00E94350942E261EC33
:1029400082E00E94350942E260EC83E00E94350992
:1029500042E261EC85E00E943509A9CE8091A10296
:10296000813009F0A4CE81E0933009F080E08093BB
:102970009C021092E9008091E800877F8093E80034
:102980000E94160994CECF93C82F1F928F9389EE81
:1029900096E09F938F930E94930861E070E080E03F
:1029A00090E004C0660F771F881F991FCA95D2F761
:1029B0000E9437100F900F900F900F90CF910C94B2
:1029C000E21160916E02669570E04BE050E084E0A9
:1029D00091E00E94A132892B19F481E08093640276
:1029E0000E94480A90935E0280935D0280916D027E
:1029F00080FF08C08AE499E09F938F930E94930818
:102A00000F900F9008955F926F927F928F929F9296
:102A1000AF92BF92CF92DF92EF92FF920F931F93EC
:102A2000CF93DF9300D000D00F92CDB7DEB7809167
:102A30006E0280FD0AC0EEECF1E01182108212827B
:102A4000339621E0E03EF207C1F780905602909065
:102A500057028114910409F457C080FF55C0D12C4E
:102A6000C12C66246394712C53E0552E809165022D
:102A700093010C2C01C0220F0A94EAF7822309F477
:102A80003BC0F601EE0FFF1FE80DF91DE590F49035
:102A9000E114F104C9F145E050E0B701CE0101961F
:102AA0000E94983209810F3F39F18A81800F99275E
:102AB000991F8730910514F086E090E05C01AA0C24
:102AC000BB1C8A0D9B1DFC01E253FE4F5F01059D5F
:102AD0008001112402531E4F0A151B0520F0F5E05A
:102AE000EF0EF11CD8CF98014D816C818B810E9433
:102AF000200B0D5F1F4FF0CF2FEFC21AD20A38E024
:102B0000C316D10409F0B2CF269A35B13F7B25B167
:102B100020644FB7F8948EEC91E0FC015191CF0105
:102B200068E025B9000000C057FF35B9550F000017
:102B300000C000C000C035B900C06A9591F7F1E04F
:102B4000803E9F0751F74FBF8FE594E00197F1F763
:102B500000C000000F900F900F900F900F90DF912A
:102B6000CF911F910F91FF90EF90DF90CF90BF908A
:102B7000AF909F908F907F906F905F9008954F924D
:102B80005F926F927F928F929F92AF92BF92CF92FD
:102B9000DF92EF92FF920F931F93CF93DF93FC018D
:102BA0006280448081E08483ECE7F9E07490EBEF8D
:102BB000F9E0E491C0EED1E03EECE32E31E0F32EFB
:102BC0004EEFC42E41E0D42E52E0A52EBB24B39488
:102BD00088248A94912C55245A94E7190E2F10E0DA
:102BE00082E0861530F080916F02888380917002B8
:102BF0008983411021C01B821A8297014A81698111
:102C000088810E94200B259683E0E80EF11CCC16EB
:102C1000DD0631F7DF91CF911F910F91FF90EF907B
:102C2000DF90CF90BF90AF909F908F907F906F90EC
:102C30005F904F900C9403158B818823E9F08150AD
:102C40008B83859DC00111246C8170E00E94F83156
:102C5000FB01FF27E458F64F8491E82FE719E59D23
:102C6000C0011124B8010E94F83180917102689F5F
:102C7000B00111247A83C1CF0E9488322091710261
:102C8000269521582A9DA0012B9D500D1124452FDA
:102C90005527841795070CF0B0CF82E0861588F48D
:102CA0000E948832B4010E940C3288830E948832CC
:102CB000209170022695622F70E00E940C32280F3E
:102CC00029831A8280917102893C20F088EC8C83E0
:102CD0008B8393CF8431D8F784E1F9CFEF92FF92C1
:102CE0001F93CF93DF93EC018EECE82E81E0F82E5A
:102CF00010E08C8197014091710260917002810F08
:102D00000E94200B165D83E0E80EF11C1C3F89F742
:102D10000E9403159A818C8190FF08C08F5F8C837D
:102D2000DF91CF911F91FF90EF9008958150F7CFE1
:102D3000BF92CF92DF92EF92FF920F931F93CF93A8
:102D4000DF93FC018281DD24DA9480FD02C0DD2462
:102D5000D3940EEC11E0D0E0C0E026E0B22EF801F2
:102D600011821082128294E0E92EF12CC12C809104
:102D7000CB018C0D87300CF43DC06B2D0E94EA31E5
:102D8000892F082E000C990B8C179D0791F48091C8
:102D900071028E9DA0018F9D500D11245595479570
:102DA0005595479598016091700280916F020E943D
:102DB000200BCD0CF1E0EF1AF108C9F621960D5F5A
:102DC0001F4FC630D10559F60E9403158091CB01E3
:102DD00091E0D91215C0811111C085E08093CB011B
:102DE000DF91CF911F910F91FF90EF90DF90CF90E7
:102DF000BF90089587FFC5CF8A5FC3CF8150EECFC4
:102E000090E00196BE010E940C32E8CF0F931F9311
:102E1000CF93DF93CEECD1E0FE01118210821282BB
:102E2000339681E0E03EF807C1F710E000E08091C2
:102E3000CC01082E000C990B081719078CF1809112
:102E40001001082E000C990B801791074CF19E0180
:102E5000409171026091700280916F020E94200B7C
:102E60000F5F1F4F23960630110509F70E940315C7
:102E700080910F019091CC01980F9093CC012091FB
:102E80001001280F20931001121614F495301CF035
:102E9000819580930F01DF91CF911F910F9108953C
:102EA000198218821A82DCCF8F929F92AF92BF92C2
:102EB000CF92DF92EF92FF920F931F93CF93DF9306
:102EC000EC014C81042F10E09801D8010E944A3394
:102ED0009B01AC010E9415334B015C01E0E2F0E084
:102EE000E01BF10BA5E5B0E0AC019B010E9415339E
:102EF0006B017C019F01DF010E942D329B01AC011F
:102F00000E9420339B01AC01280D391D4A1D5B1D19
:102F1000C701B6010E942833F22E822F90E039E2D9
:102F20003F15D8F143E0249F900111243595279552
:102F3000122F10959EECC92E91E0D92E00E085E568
:102F4000E82EEF188E2D01FD8F2D9601412F6091F7
:102F500070020E94200B0F5F53E0C50ED11C06309B
:102F600089F70E9403159C8181E0992319F0903222
:102F700019F48FEF8093110180911101890F8C83D7
:102F8000DF91CF911F910F91FF90EF90DF90CF9045
:102F9000BF90AF909F908F90089525E530E0A901F4
:102FA000481B590BCA019A01220F331F280F391FE2
:102FB00037FFBCCF2F5F3F4FB9CFEF92FF920F93F8
:102FC0001F93CF93DF938C01CEECD1E0F12CE12C59
:102FD000F80194816091700280916F02F3E0EF1626
:102FE000F104FCF49923F9F09E01409171020E94D2
:102FF000200B2FEFE21AF20A239686E0E816F1047E
:1030000039F70E940315F801848190E001968170E0
:1030100099278483DF91CF911F910F91FF90EF90BB
:103020000895992309F39E0140E0E1CF90916E024B
:1030300090FF0CC0EEECF1E0818360834283339615
:1030400091E0E03EF907C1F70C94031508950F9342
:103050001F93CF93DF9300D00F92CDB7DEB78C01D3
:103060008091CD0181110AC09E012F5F3F4F4FEF2C
:103070006FEF0E94200B8A818093CD01F80164815B
:10308000613069F08091CD0140E0662361F040E05D
:10309000623011F44091CD0180E060E004C06091A5
:1030A000CD0140E080E00E941618F801848190E094
:1030B000019663E070E00E940C3284830F900F90C1
:1030C0000F90DF91CF911F910F910895CF93DF93D0
:1030D00000D00F92CDB7DEB790916E0290FF0AC07C
:1030E0009E012F5F3F4F0E94200B4B8169818A8197
:1030F0000E9416180F900F900F90DF91CF910895B6
:10310000CF93DF93EC01EC81F0E0E458F64F44916B
:10311000EEE6F2E0628181810E9466188C818F5F09
:103120008C83DF91CF910895CF93DF93EC01EEE68E
:10313000F2E0438162818C810E9466188C818F5FEE
:103140008C83DF91CF9108952F923F924F925F929F
:103150006F927F928F929F92AF92BF92CF92DF92A7
:10316000EF92FF920F931F93CF93DF9300D000D085
:1031700000D0CDB7DEB7582E262E342E2E83909158
:103180006E0290FF47C0E92FE695AE2FB0E0A35E38
:10319000BE4F8C91809363029E7F923009F053C0A2
:1031A0009E012F5F3F4F852D0E94200B4B8169812F
:1031B0008A810E94161850926F02209270023092FB
:1031C00071028E81882309F49FC060916E02709114
:1031D0006F0280917002909171020E949F11809104
:1031E0006D0280FF17C0809171021F928F938091B2
:1031F00070021F928F9380916F021F928F9389EFBD
:1032000098E09F938F930E9493080FB6F894DEBFC7
:103210000FBECDBF26960FB6F894DEBF0FBECDBF52
:10322000DF91CF911F910F91FF90EF90DF90CF90A2
:10323000BF90AF909F908F907F906F905F904F90D6
:103240003F902F900895823019F430907102B3CFDF
:10325000863019F450906F02AECF8930D9F389319E
:1032600009F0A9CFE9518E2F81708C838E2F809524
:1032700081708D83E695F0E0EB5BF64FE590F4907E
:10328000FF248EECC82E81E0D82EB12CA12C10E0AA
:1032900000E096E0692E712C2EE1822E29E0922E1C
:1032A000C501B3010E94F8319C81452C91112AC0BF
:1032B000460E80916D0280FF12C0FF92EF921F9226
:1032C0008D818F931F924F921F930F939F928F9296
:1032D0000E9493080FB6F894DEBF0FBECDBF9601D3
:1032E000432D622D842D0E94200B0F5F1F4FAE0CCB
:1032F000BF1C93E0C90ED11C0630110589F60E944F
:10330000031559CF461AD5CF80916D0280FF82CF29
:103310001F923F921F922F921F925F9282ED98E030
:1033200070CF90916E0290FF55C0917081113CC09A
:10333000926090936E026623F1F160916E0270913B
:103340006F0280917002909171020E949F11809192
:103350006D0280FF0FC080916E0286951F928F9341
:103360008CE098E09F938F930E9493080F900F90AA
:103370000F900F9060916E02669570E04BE050E008
:1033800084E091E00E94A132892B09F10E94B410DF
:1033900081E08093600220E04091710260917002B0
:1033A00080916F020C94A4188B3210F09465C1CFF9
:1033B000880F982BBECF80916D0280FFDBCF80916C
:1033C0006E0286951F928F938EEE97E0CBCF0E9470
:1033D000E114DECF089580916E02816080936E02C9
:1033E00080916D0280FF0DC01F9281E08F9388E273
:1033F00098E09F938F930E9493080F900F900F90E7
:103400000F9080916E0261E086950C94911921E0F5
:1034100030E0A90102C0440F551F8A95E2F7CA01A6
:1034200020916502662369F0822B8093650280916A
:103430006402811109C080916E0260E086950C944F
:10344000911980958223F1CF0895CF93C82F82E000
:103450008093B70284EF91E09093B6028093B50217
:1034600061E08C2F0E94071A8091B70281508093EF
:10347000B70221E030E001C0220FCA95EAF780913F
:10348000B402822B8093B4020E94480A8C509E4F53
:103490009093B3028093B202CF910895CF92DF92BE
:1034A000EF92FF920F931F936B017C01A701662798
:1034B000772780E1411551056105710519F4B701C0
:1034C000A60180E0052F162F272F332701151105A0
:1034D0002105310519F0885FB901A8018A019B0116
:1034E000F4E03695279517950795FA95D1F70115CC
:1034F00011052105310519F08C5FB901A8018A0178
:103500009B01E2E03695279517950795EA95D1F747
:10351000011511052105310519F08E5FB901A801CA
:103520007695679557954795452B462B472B09F080
:103530008F5F813099F0882369F0823089F0833081
:1035400089F0C701B6011F910F91FF90EF90DF90B6
:10355000CF90089580E00E94251AF3CF81E0FBCF41
:1035600082E0F9CF83E0F7CF0E944E1A6093AE025B
:103570007093AF028093B0029093B1020C94291023
:103580000F931F936091AE027091AF028091B002D1
:103590009091B1028B019C010670112722273327DD
:1035A000063011052105310529F468601F910F913E
:1035B0000C94B41A677FFACF0F931F9341E050E049
:1035C00060E070E004C0440F551F661F771F8A95A6
:1035D000D2F7CB01BA0160957095809590950091D6
:1035E000AE021091AF022091B0023091B10260237F
:1035F0007123822393231F910F910C94B41A9091FD
:1036000046028095892380934602282F277039F43B
:10361000282F082E000C330B9217130621F49091DB
:10362000510292FF07C08595859585950E94DC1A09
:103630001092460208950F931F9341E050E060E01E
:1036400070E004C0440F551F661F771F8A95D2F79C
:103650008091AE029091AF02A091B002B091B10200
:103660008A019B01082B192B2A2B3B2BC901B8017E
:103670001F910F910C94B41A80916E028160809317
:103680006E0280916D0280FF0DC01F9281E08F93CA
:103690008FE598E09F938F930E9493080F900F906F
:1036A0000F900F9080916E0260E086950C949119B6
:1036B00080916E028695815009F48AE261E00C9453
:1036C000911980916E0286958F5F8B3208F081E0B0
:1036D00061E00C94911990916E0290FF07C096954D
:1036E000981720F0961710F40C94611B61E00C946D
:1036F00091196AEE7EEF90E080E00E94E03260E097
:1037000082E090E00E94C23260E083E090E00E949C
:10371000C23210924B0210924C0210924D02109243
:103720004E0260E084E090E00E94C23260E082E2FB
:1037300090E00E94C23260E085E090E00E94C232D8
:1037400060E086E090E00E94C2326FEF87E090E098
:103750000E94C23240E050E0BA0188E090E00E944E
:10376000D43260E08DE090E00E94C23240E050E050
:10377000BA0188E190E00E94D43260E087E190E0F5
:103780000E94C23240E050E0BA018CE190E00E9419
:10379000D43270E060E080E290E00E94E03240E0ED
:1037A00050E0BA0188E190E00E94D4320E94EB1907
:1037B00021E048EC6FEF80E00E94A41861E08BE00C
:1037C0000E94911940E050E0BA018FE090E00E9421
:1037D000D43240E050E0BA0183E190E00C94D4325E
:1037E000CF93DF93EBEFE80FEF3308F04EC2F0E03A
:1037F000ED58FC4C0C9420328EED96E00E94FA07B6
:1038000086E293E00E94FA0783E090E00E94AE32E5
:103810001F928F9383E293E09F938F930E9493086C
:1038200081E293E00E94FA0782E090E00E94AE32CB
:10383000C82F8EE093E00E94FA071F92CF9389E091
:1038400093E09F938F930E94930887E093E00E94F8
:10385000FA078DEF92E00E94FA078C2F81701F9279
:103860008F938AEF92E09F938F930E94930888EF43
:1038700092E00E94FA078EEE92E00E94FA07C1FBE6
:10388000882780F91F928F938BEE92E09F938F93FE
:103890000E94930889EE92E00E94FA078DED92E073
:1038A0000E94FA07C2FB882780F91F928F938AED46
:1038B00092E09F938F930E94930888ED92E00E947C
:1038C000FA078FEC92E00E94FA07C3FBCC27C0F9FD
:1038D0001F92CF938CEC92E09F938F930E9493085A
:1038E0008AEC92E00E94FA070E948D0CEC0186EBB4
:1038F00092E00E94FA07DF93CF9381EB92E09F93CF
:103900008F930E9493088FEA92E00E94FA0786E95B
:1039100092E00E94FA078C2F81701F928F9383E9A7
:1039200092E09F938F930E9493088DB79EB78096E5
:103930000FB6F8949EBF0FBE8DBF81E992E00E9442
:10394000FA078AE792E00E94FA07C1FB882780F90C
:103950001F928F9387E792E09F938F930E94930823
:1039600085E792E00E94FA0783E692E00E94FA0758
:103970008D2F81701F928F9380E692E09F938F939B
:103980000E9493088EE592E00E94FA078CE492E090
:103990000E94FA07D695D1701F92DF9389E492E0D6
:1039A0009F938F930E94930887E492E00E94FA0706
:1039B00085E392E00E94FA07C2FB882780F91F92F4
:1039C0008F9382E392E09F938F930E94930880E30A
:1039D00092E00E94FA078EE192E00E94FA07C3FB90
:1039E000882780F91F928F938BE192E09F938F93AA
:1039F0000E94930889E192E00E94FA078FE092E02A
:103A00000E94FA07C4FB882780F91F928F938CE0ED
:103A100092E09F938F930E9493088AE092E00E9425
:103A2000FA0788EF91E00E94FA07C5FB882780F922
:103A30001F928F9385EF91E09F938F930E9493083D
:103A400083EF91E00E94FA0787ED91E00E94FA0768
:103A5000C6FB882780F91F928F9384ED91E09F9396
:103A60008F930E9493088DB79EB780960FB6F894F7
:103A70009EBF0FBE8DBF82ED91E00E94FA078AECD7
:103A800091E00E94FA07C7FBCC27C0F91F92CF93A1
:103A900087EC91E09F938F930E94930885EC91E0CF
:103AA0000E94FA070F900F900F900F9081E01CC0BA
:103AB0008DEC96E00E94FA070E94791BF7CF86E30F
:103AC00093E00E94FA07F2CF80916D02807F80938D
:103AD0006D0286E09CE00E94FA0789EC96E00E9465
:103AE000FA0781E080930302DF91CF9108958DEA78
:103AF00096E00E94FA070E94E2119FEF24E38CE017
:103B0000915020408040E1F700C000000E942B0A45
:103B100090916D02892F8E7F90FF816080936D025E
:103B200080FF03C081EA96E0CCCF84E996E00E9452
:103B3000FA0780916D02817F80936D02B7CF9091DB
:103B40006D02892F8D7F91FF826080936D0281FFCE
:103B500008C087E896E00E94FA0780916D028160B4
:103B6000EBCF89E796E0ADCF90916D02892F8B7FE7
:103B700092FF846080936D0282FF03C08AE696E024
:103B8000EACF8AE596E09DCF90916D02892F877FDD
:103B900093FF886080936D0283FF03C08EE496E0FC
:103BA000DACF81E496E08DCF8AE995E00E94FA07AA
:103BB00080E695E00E94FA0789E495E00E94FA0702
:103BC00083E195E00E94FA0788EE94E07ACF8CE1D9
:103BD00096E00E94FA070E94000B1F928F9382E0EA
:103BE00096E09F938F930E94930880911C011F92EF
:103BF0008F938BEE95E09F938F930E949308809113
:103C000079021F928F9388ED95E09F938F930E9486
:103C100093088091500287FB882780F91F928F9329
:103C200080EC95E09F938F930E9493080E943C0A3A
:103C30009F938F937F936F9389EA95E09F938F93E0
:103C40000E9493088DB79EB746960FB6F8949EBF14
:103C50000FBE8DBF2BCF0E94E21190915002892F91
:103C600097FB87F980588093500287FF03C087E352
:103C700096E027CF8CE296E024CF80E00E94C31428
:103C800015CF8953FBCF8D51F9CF8AE296E00E9480
:103C9000FA0780E029CFCF93C82F8823E9F18CEF72
:103CA0008C0F813A08F06CC080910302882359F18F
:103CB0008130A1F11092030280911C01882309F444
:103CC0004EC08091500287FF4AC0EC2FE695E695E2
:103CD000E695F0E0E855FE4F828190E04C2F47706A
:103CE00021E030E002C0220F331F4A95E2F7822321
:103CF0009323892BE9F16C2F88EA91E00E94200F31
:103D00000E94A10F35C0809149028232A9F68C2F02
:103D10000E94F01B882381F2CF910895809149027F
:103D20008232A9F3C431B9F038F4CB3049F081E2E2
:103D30009CE00E94FA0711C0C93269F0C833B9F794
:103D400086E09CE00E94FA0783E29CE00E94FA076A
:103D500081E08170DFCF1092030280E0FACFEAEABF
:103D6000F1E08191C81739F281E0E03BF807C9F72B
:103D70006C2F88EA91E00E945B0FCF910C94A10F09
:103D800080E28C0F883068F4C77021E030E001C019
:103D9000220FCA95EAF780914902822B809349024B
:103DA000ECCFEBE5EC0FE33040F4F0E0E85BFE4FE6
:103DB000808190E0CF910C94EA0AC85AC73108F08C
:103DC000ABCFEC2FF0E0EE0FFF1FE55BFE4F8081E5
:103DD0009181CF910C94D40A1F93CF93DF93182F26
:103DE000D0E0C0E0893311F4C0E5D0E0812F0E941B
:103DF0004B1E209731F4812FDF91CF911F910C94AE
:103E000056108FE99FE00197F1F700C0000021975D
:103E1000F0CF0F931F93CF93DF93C62FD42F022F92
:103E2000FC0182818823A1F06093AD020E94480AC0
:103E30009093AC028093AB02C77081E001C0880F01
:103E4000CA95EAF7DF91CF911F910F910C944C1016
:103E50008091AD02681340C02091AB023091AC025A
:103E60004FB7F8948091A7029091A802A091A9025F
:103E7000B091AA024FBF821B930B8331914060F532
:103E800010E21D0F6D17B9F080E2860F883040F404
:103E9000C77081E001C0880FCA95EAF70E944110FF
:103EA000183048F481E09D2F977001C0880F9A95D3
:103EB000EAF70E944C10802F0E94EC1E183098F4F4
:103EC000D77081E001C0880FDA95EAF7DF91CF91D2
:103ED0001F910F910C944110C77081E001C0880FB1
:103EE000CA95EAF7F3CFDF91CF911F910F91089513
:103EF000CF93C82F80E00E94AF0A882349F089EA57
:103F0000C11101C08AEA0E94EC1E81E0CF910895A0
:103F100081E00E94AF0A8111F2CF82E00E94AF0AD5
:103F2000882329F08FE4C111EECF80E5ECCF83E048
:103F30000E94AF0A882349F382E5C111E4CF81E5ED
:103F4000E2CF3F924F925F926F927F928F929F92B9
:103F5000AF92BF92CF92DF92EF92FF920F931F9397
:103F6000CF93DF9300D000D00F92CDB7DEB78C0196
:103F7000FC0183819481892B31F080819181892397
:103F80008F3F09F029C60F900F900F900F900F9060
:103F9000DF91CF911F910F91FF90EF90DF90CF9025
:103FA000BF90AF909F908F907F906F905F904F9059
:103FB0003F9008950E944D0EF82E682F89819A81B6
:103FC0000E94820A69817A818F2D0E94C10C7C0136
:103FD000F8018281882309F4F2C5970122513F45F7
:103FE0002031310508F0BEC58FEF93E00E94AE325C
:103FF000FEEEEF0E5FE6852E912C882381F18091F5
:104000004602877009F4BFCFF8018281882309F442
:10401000BACF82E00F900F900F900F900F90DF912A
:10402000CF911F910F91FF90EF90DF90CF90BF90B5
:10403000AF909F908F907F906F905F904F903F9048
:104040000C94FF1A811424E09206C9F2C4010E9464
:10405000AE32811101C0EA943FEF831A930AE11056
:10406000F1CF1C821B82442443944AE0342E740115
:104070008FEFE81AF80AC4010E94AE3289831A82CF
:10408000882309F4BCCF9FEF980F933000F58A8303
:10409000498292E0890E911CC7010E94AE328B8347
:1040A000882309F4ACCFFE0131967F01F70120810E
:1040B0002223E9F2213009F049C0918182819130B7
:1040C00041F4F2E0EF0EF11C0E94EC1E09C0470122
:1040D000EACF923049F422E0E20EF11C0E944B1E1E
:1040E0003FEFE31AF30AE2CF933031F432E0E30E0C
:1040F000F11C0E945610F4CF943021F08FEFE81A93
:10410000F80AEECF92E0E90EF11C30E020E0B701B2
:104110006F5F7F4FF70141818053990B8A30910582
:1041200050F021503109E0F28FE99FE00197F1F75B
:1041300000C00000F6CF329EF001339EF00D112436
:104140009C012E0F3F1F842F7B01E1CFE22FF0E077
:10415000EC50F54F5490822F86958695869590E089
:10416000FC01EC51F54F64902770712C022E02C0B7
:10417000759467940A94E2F7E1E06E227724FC01DB
:10418000EC52F54FA490B12C022E02C0B594A79426
:104190000A94E2F7F1E0AF22BB24FC01EC53F54FA7
:1041A000C490D12C02C0D594C7942A95E2F721E09F
:1041B000C222DD246114710419F081EE0E944B1EAD
:1041C000A114B10419F086EE0E944B1E852D0E94A9
:1041D000EC1EAB2819F086EE0E945610672819F0E5
:1041E00081EE0E945610CD2809F47ACF8CE26CCF74
:1041F00081E00E941B1B0E94C01A01CF81E00E9437
:10420000DC1AF9CF82E0F5CF95EFE9169CE5F906C7
:1042100009F469C008F463C027E245EE66EEF6EFE4
:10422000EF16FCE5FF0609F4C6C4882309F4E5C4CB
:104230001092AD0222E0E2162CE5F20608F44CC121
:1042400036E1E3163CE5F30630F0C7018A5F9C4592
:10425000099708F041C10E948D0C90935102809300
:10426000500280E1E8168CE5F80609F404C108F074
:1042700083C0E8E0EE16ECE5FE0609F4EEC008F0B7
:104280004FC024E0E2162CE5F20609F4DEC090F5FA
:1042900082E0E8168CE5F80609F4D1C0809150025E
:1042A000826093E0E9169CE5F90609F4CBC06091C1
:1042B0005002F090510284E090E00E94C2326F2DD3
:1042C00082E290E00E94C2320E94E21198CE27E280
:1042D00045EE65EE70C426E241EE60EE6CC427E266
:1042E00045EE64EE68C426E241EE62EE64C428E264
:1042F00041E0EFCF809150028061E6E0EE16ECE500
:10430000FE0609F49FC0809150028860F7E0EF1626
:10431000FCE5FF0608F496C080915002806292C0CE
:10432000809150028D7F2CE0E2162CE5F20609F414
:1043300089C060F48AE0E8168CE5F80609F497C0B5
:1043400008F48FC0809150028E7F7CC08091500213
:10435000877FEEE0EE16ECE5FE0609F473C080916F
:1043600050028B7FFFE0EF16FCE5FF0608F46AC001
:10437000809150028F7E66C02BEFE2162CE5F2068C
:1043800009F467C068F583E1E8168CE5F80609F4DE
:104390007AC090F4E1E1EE16ECE5FE0609F46FC098
:1043A000F2E1EF16FCE5FF0609F081CF0E94E21171
:1043B000809150028F7746C025E1E2162CE5F20687
:1043C00009F469C008F47DC08AEFE8168CE5F806A8
:1043D00009F06DCF8091510281608093510267CFC7
:1043E0009FEFE9169CE5F90609F451C0A0F480910D
:1043F00051028D7FFDEFEF16FCE5FF0671F3809112
:1044000051028E7F2EEFE2162CE5F20630F38091FA
:1044100051028360E2CF31E0E3163DE5F30609F493
:1044200059C008F444C060E092E0E9169DE5F90641
:1044300009F03DCF8EE090E00E94C23238CF8091EB
:10444000500281608093500232CF8091500284608C
:10445000F9CF809151028260C0CF80915002806478
:10446000F1CF0E94E211809150028068EBCF8091E1
:1044700050028C60E7CF809150028F7DE3CF809116
:1044800050028F7BDFCF80915002837FDBCF809102
:1044900051028C7FA2CF8091500282FB992790F924
:1044A00021E0922790FB82F990FB83F9CBCF80919A
:1044B0005102982F909591708E7F892B90FB81F9F6
:1044C0008CCF0E94E21190915002892F97FB87F9BF
:1044D0008058B8CF61E0AECF80914902E6E1EE1698
:1044E000ECE5FE0609F098C38A7A91E009F490E0C1
:1044F0009093020269E2811165E388EA91E00E94EB
:104500005B0F0E94A10F7BCD80916D0280FF10C0D8
:1045100080916E02809581701F928F938CEA9BE050
:104520009F938F930E9493080F900F900F900F907E
:1045300080916E0280FF2EC08E7F80936E0260910C
:104540006E0270916F0280917002909171020E94D0
:104550009F1180916D0280FF0FC080916E0281706B
:104560001F928F9384E79BE09F938F930E94930801
:104570000F900F900F900F900E94B410FFEF20E764
:1045800032E0F15020403040E1F700C000000E94CE
:10459000031535CD0E94EB1932CD48E55BE161E6AC
:1045A0007BE10E940C0B2BCD41E65BE168E57BE1F2
:1045B000F8CF46EA59E26DE979E2F3CF45E859E2EE
:1045C00061E979E2EECF4DE659E269E779E2E9CFB8
:1045D00049E759E26DE679E2E4CF42EC51E161EB63
:1045E00071E1DFCF61E081E00E94911908CD65E0C3
:1045F00082E00E946B1B03CD68E086E0FACF64E1A5
:104600008FE0F7CF67E185E1F4CF62E289E1F1CF96
:1046100061E083E2E9CF2BE5E2162DE5F206C9F170
:104620003CE5E3163DE5F30651F18AE5E8168DE534
:10463000F80609F023C381E029C00E94E2119FEF30
:10464000E4E3FCE09150E040F040E1F700C00000FE
:104650000E942B0A90916D02892F8E7F90FF8160BE
:1046600080936D0280FF05C085EF9BE00E94FA07F2
:10467000C6CC83EE9BE0FACF0E94791BC0CC809120
:10468000510282FB882780F991E089270E948810D7
:10469000F5C280E0FBCFC7010E945A0AD82EFDC2A6
:1046A0002F2D2F70A22E8F2D807F19F0A29490EFC6
:1046B000A922DD20C9F0AA2069F080E28E0D8830A1
:1046C00010F081100BC080914902A82AA0924902E3
:1046D0000E94A10F8E2D0E944B1E19C0809148028E
:1046E000A82AA0924802F4CF8E2D0E945610AA202C
:1046F00071F0A09480E28E0D883010F081103DC0E2
:1047000080914902A822A09249020E94A10F232D64
:104710002850330B2430310510F40E94000BCC20BC
:1047200009F431CC8091460280FD2DCCF801128233
:104730008595859585950E941B1BC8010E94A11F28
:10474000809146028595859585950F900F900F90E5
:104750000F900F90DF91CF911F910F91FF90EF90ED
:10476000DF90CF90BF90AF909F908F907F906F9091
:104770005F904F903F900C94DC1A80914802A822E1
:10478000A0924802C2CF3F2D3F70932E8F2D807F85
:10479000803219F0929480EF9822882071F081E0A5
:1047A000881681F1DD20D9F1AA2091F1F8018581E7
:1047B00080FF90CF8F7085832BC0DD20B1F090916A
:1047C0004A02892D892BA11003C00E944C109FCF53
:1047D000E1E0AE12FACF2091510222FD98CF981756
:1047E00009F495CF80934A0292CFA11006C00E948F
:1047F000540A892D0E9441108ACFF1E0AF1609F4C6
:1048000086CFF5CFDD2031F025E02A1508F47FCFE3
:10481000892DDBCF34E03A1508F479CFEACFAA200E
:1048200041F3F9E38F1209C02FEF37EE83E02150F7
:1048300030408040E1F700C000008E2D0E945610ED
:1048400066CF8F2D86958695837061F0813009F053
:104850005ECFC7019370D11002C090E080E00E944B
:10486000D40A55CFC7019370D11002C090E080E008
:104870000E94EA0A4CCF8F2D837009F066C0D110D8
:1048800046CF8E2D829586958770880F880F6E2D66
:104890006F70462E512C712C612C082E04C0440CD4
:1048A000551C661C771C0A94D2F740E050E0BA0110
:1048B000E4FE0FC04FE050E060E070E004C0440F41
:1048C000551F661F771F8A95D2F7409550956095C2
:1048D00070958F2D869586958370823019F1D8F466
:1048E00080904B0290904C02A0904D02B0904E02EE
:1048F000813069F04429552966297729CB01BA010D
:10490000682179218A219B210E94371000CF4828F5
:1049100059286A287B28CB01BA0164297529862980
:104920009729F2CF442955296629772940904B02CF
:1049300050904C0260904D0270904E02CB01BA0133
:104940006425752586259725DFCF8695DD2011F016
:104950008F2D8170882309F4DACE8E2D829586956D
:104960008770880F880F6E2D6F70462E512C712C1A
:10497000612C082E04C0440C551C661C771C0A943C
:10498000D2F740E050E0BA01E4FE0FC04FE050E043
:1049900060E070E004C0440F551F661F771F8A95C2
:1049A000D2F740955095609570958F2D8695869598
:1049B0008370823019F1D8F48090AE029090AF02EB
:1049C000A090B002B090B102813069F0442955291D
:1049D00066297729CB01BA01682179218A219B2197
:1049E0000E94B41A94CE482859286A287B28CB0103
:1049F000BA016429752986299729F2CF44295529B6
:104A0000662977294090AE025090AF026090B002C4
:104A10007090B102CB01BA016425752586259725D2
:104A2000DFCF9F2D9F70F92EDD2029F0892F0E9466
:104A30001B1B8E2DCACE8E2D0E9441108F2D0E94E1
:104A4000DC1A65CE8E2DE2EF8E1609F457C0E815FC
:104A500078F0F0EF8F1649F121EF821609F446C085
:104A6000DD2009F46FC0A11035CE8F2D8F7143C0AA
:104A700033EF831609F447C094EF8912F1CFDD209C
:104A800009F455C02F2D2F71F22E822F0E941B1B6F
:104A90008091510282FD07C038E0F39EC0011124CD
:104AA0008360809346028F2D26C0DD20D1F0E4E0A4
:104AB000EA1508F42CCE2F2D2F7161E070E080E014
:104AC00090E004C0660F771F881F991F2A95D2F7C0
:104AD0004090AE025090AF026090B0027090B10270
:104AE0009BCFF5E0FA1508F412CEE5CF8F2D8F712C
:104AF000DD2009F4A4CF0E941B1B09CE8F2D8F71DE
:104B0000DD20C9F39CCF60E070E0CB01DD2009F42B
:104B100067CF2F2D2F7161E070E080E090E004C03E
:104B2000660F771F881F991F2A95D2F759CF81E00A
:104B30000E94FF1A81E08A1508F0E9CD82E00E9408
:104B4000FF1AE5CDAA2059F0893309F076CE9FEF00
:104B5000E7EEF3E09150E040F040E1F76CCE8F2DAE
:104B60008F716DCFF0E1EF16FFE5FF0609F440CB42
:104B700021E1E2162FE5F20609F444CB93EFE916A2
:104B80009CE5F90609F4A7CB08F03ECBF8EDEF164B
:104B9000FCE5FF0609F49BCB29EDE2162CE5F206B5
:104BA00009F4A5CB37EDE3163CE5F30609F03DCB60
:104BB00026E241EE61EEC8010E94091F20CA30E1E1
:104BC000E3163FE5F30609F419CB91E1E9169FE5F9
:104BD000F906A1F682E013CB85E0DE011196019083
:104BE0000D928A95E1F7F801228189819A8121113C
:104BF000E1C90E945A0AF82EE5C9F6E1EF16FCE574
:104C0000FF06E1F58091020269E2811165E388EA1D
:104C100091E00E94200F75CC82722CECE2162CE5FC
:104C2000F20609F4DACC08F0A5C096ECE9169CE58A
:104C3000F90609F4BECC08F074C0F3ECEF16FCE5FD
:104C4000FF0609F4AACC08F05BC032ECE3163CE5A1
:104C5000F30609F459CC8EEDE8168CE5F80609F454
:104C60000BCD08F0D8CCE114ECE5FE0609F4E5CC58
:104C7000F1E0EF16FCE5FF0609F4ECCCF8018281C7
:104C8000E080F180882309F406CDC7010E944D0E13
:104C9000D82E682FC7010E94820AB7018D2D0E946D
:104CA000CE0C7C01882EF801D280A580A2943FE032
:104CB000A322809146028770A1F0CD2CDD2091F0D7
:104CC0008F2D807F803421F080E28E0D883048F077
:104CD00082E00E94FF1A809146028770CC24C39420
:104CE0008111C12C3F2C32942FE03222FBE0F315CE
:104CF00008F40DCDE32DF0E0EE54FC4C0C94203282
:104D000094ECE9169CE5F90609F44ECC4DE959E21C
:104D100066EA79E2E5ECEE16ECE5FE0609F441CC34
:104D20009ACFF9ECEF16FCE5FF0609F44CCC88F4B9
:104D300037ECE3163CE5F30609F440CC41E959E2CF
:104D400065E879E298ECE9169CE5F90609F429CCC6
:104D500082CFEAECEE16ECE5FE0609F439CC41EB25
:104D600051E162EC71E1FBECEF16FCE5FF0609F4A2
:104D700018CC71CF21EDE2162CE5F20609F43FCCF8
:104D8000B8F48EECE8168CE5F80609F430CC08F49B
:104D900029CCEFECEE16ECE5FE0609F42DCC6EE026
:104DA00089E0F0EDEF16FCE5FF0609F422CC53CFC5
:104DB00024EDE2162CE5F20609F427CC78F482ED16
:104DC000E8168CE5F80609F41DCC61E088E193ED66
:104DD000E9169CE5F90609F407CC3DCFE5EDEE16A2
:104DE000ECE5FE0609F414CC6AE285E2FDE5EF1677
:104DF000FF0609F4FECB2FCF1F93CF93DF93809153
:104E00000902807FA9F480910602882389F08091AD
:104E10003B02D0910A026091040270910502A091B8
:104E20000702B0910802C62FC72316E0D81304C0AA
:104E3000DF91CF911F91089590E0109711F0CF3F2F
:104E400019F401968770F2CF189F9001199F300DC9
:104E50001124F901E55FFD4F41814713F2CF4081F5
:104E60004613EFCF42814111ECCF438154814A1B5D
:104E70005B0B4331514028F7809109028F708061AC
:104E800080930902F901E05FFD4F80818F7080619E
:104E9000808384E092E00E94A11FDF91CF911F9157
:104EA0000C94CA0AAF92BF92CF92DF92EF92FF9218
:104EB0000F931F93CF93DF93CDB7DEB761970FB6F4
:104EC000F894DEBF0FBECDBF8C0185E0F801DE0196
:104ED0001D9601900D928A95E1F7F80180819181EC
:104EE000E28024E0A22E22E0B22E609107027091AF
:104EF00008026115710509F43FC130910402409127
:104F00000502232F24232F3F09F436C1C380D48008
:104F1000F0900602F601E61BF70BBF01FF2009F433
:104F2000FBC020910902522F507F6331714008F07D
:104F3000BBC0511178C0FE2C491321C038131FC0CB
:104F4000E1101DC02F70206120930902C5010E944D
:104F5000A11F80910902F80185838F2D61960FB6FC
:104F6000F894DEBF0FBECDBFDF91CF911F910F919F
:104F7000FF90EF90DF90CF90BF90AF900895CD2835
:104F800029F0282F29232F3F09F014C120E0F22F08
:104F9000F170DF2E20FF3DC020913B0240910A02BC
:104FA00056E0241315C08D879E878D859E850E94AF
:104FB0008F0E292F22952F702230F8F0243020F503
:104FC0009F70F9F0F8019581907FD9F4D12C1FC022
:104FD00030E0529FF001539FF00D1124E55FFD4F2B
:104FE0006181961306C06081861303C06281E61258
:104FF00010C02F5F3F4F2770D4CF9F7011F08823D0
:1050000029F3805E883010F3C8010E94A11FFD2C97
:10501000A4CFEE2009F4A1CF809109028160809392
:105020000902F12C9ACF491312C0381310C0E110B5
:105030000EC0F8012583C8010E94A11F86E0F80177
:10504000A4E0B2E001900D928A95E1F786CF8D87BA
:105050009E878D859E850E94990E882309F1EE20FA
:10506000F9F080910902803270F0209104023091B1
:10507000050238872F831986DB86CA868C87CE0186
:1050800007960E94A11F86E0F801A4E0B2E001901B
:105090000D928A95E1F70E94FC26FF24F3945DCFE0
:1050A000C8010E94A11FF9CF51110AC084E092E00B
:1050B0000E94A11F86E0F50111928A95E9F7B1CF10
:1050C00049130FC038130DC0E1100BC0F801258340
:1050D000C8010E94A11F86E0F50111928A95E9F7A7
:1050E0003CCF8D879E878D859E850E94990E882353
:1050F000B9F2EE20A9F280910902803220F22091CB
:105100000402309105023A8329831B82DD82CC821E
:105110008E83CE010196B5CF63317140E0F6FE2C4F
:10512000EE2009F4BDCF491316C0381314C0809186
:10513000090280FD83CF982F907F09F47FCFF8017B
:105140008583903F09F477CF982F907F905F8F7081
:10515000892B858370CF8D879E878D859E850E9444
:10516000990E811190CF809109028160809309028C
:10517000C8010E94A11FF1CEEE2009F491CF8D87C6
:105180009E878D859E850E94990EF82E882309F4AE
:1051900087CF86E0F801A4E0B2E001900D928A95F5
:1051A000E1F780910402909105020E948F0E0E9407
:1051B000FC26D3CE21E02E25EACE1F93CF93DF939A
:1051C000CDB7DEB767970FB6F894DEBF0FBECDBF81
:1051D000342F4B8B252F5C8B6D8B7E8B8F8B8E8929
:1051E0009F896111109248021A8A198A3D872E8779
:1051F0006F87998B888B86E0FE013D96DE011796BE
:1052000001900D928A95E1F7CE0107960E945227F0
:10521000882389F016E080913B0290910A0289135D
:1052200049C067960FB6F894DEBF0FBECDBFDF91C1
:10523000CF911F91089586E0FE013796DE01119609
:1052400001900D928A95E1F78A859B85892B11F350
:105250008F81988589238F3FE9F220910A0230E0FF
:10526000C90101968770992740913B02481719069A
:1052700071F40E94E21110920A0210923B0286E041
:10528000E4E0F2E0DF011D928A95E9F7C3CF96E0F2
:10529000929FD001939FB00D1124A55FBD4FFE01D9
:1052A000319601900D929A95E1F780930A020E943F
:1052B000CA0AB0CF819FC0011124855F9D4F0E9413
:1052C0005227882309F4ADCF80913B0290E00196EC
:1052D0008770992780933B029ECFEEE6F2E04381F0
:1052E00028E0421B08F440E021E0628181810C94B7
:1052F000A418EEE6F2E0438128E0420F08F44FEFF5
:1053000021E0628181810C94A418EEE6F2E06281D2
:1053100028E0621B08F460E021E0438181810C9465
:10532000A418EEE6F2E0628128E0620F08F46FEF65
:1053300021E0438181810C94A418EEE6F2E08181A2
:1053400021E04381628188500C94A418EEE6F2E0DB
:10535000818121E043816281885F0C94A41880914F
:105360006E028E7F80936E0280916D0280FF0CC072
:105370001F921F9288E998E09F938F930E94930851
:105380000F900F900F900F900E94B4102FEF80E7B6
:1053900092E0215080409040E1F700C000000C9462
:1053A00003151F920F920FB60F9211242F933F9364
:1053B0004F935F936F937F938F939F93AF93BF931D
:1053C000CF93DF93EF93FF93D091E900DF7080914B
:1053D000EC00C82FC17080FDC0E81092E9008091F8
:1053E000F000877F8093F00078940E94F71110926C
:1053F000E9008091F00088608093F000CD2BCF70A1
:10540000C093E900FF91EF91DF91CF91BF91AF91F0
:105410009F918F917F916F915F914F913F912F91CC
:105420000F900FBE0F901F9018951F920F920FB6FE
:105430000F9211242F933F934F935F936F937F931A
:105440008F939F93AF93BF93EF93FF938091E1006E
:1054500082FF15C08091E20082FF11C08091E100BF
:105460008B7F8093E100209177022F5F822F62E390
:105470000E94DE31992309F4BEC020937702809107
:10548000DA0080FF28C08091D80080FF24C080917E
:10549000DA008E7F8093DA008091D90080FFE1C02E
:1054A00080E189BD82E189BD09B400FEFDCF81E0C4
:1054B00080939D028AE79EE00E94FA07809178021D
:1054C000811109C00E949C080E9467098091E20036
:1054D00084608093E2008091E10080FF1BC0809196
:1054E000E20080FF17C08091E2008E7F8093E2008F
:1054F0008091E20080618093E2008091D800806218
:105500008093D80019BC85E080939D0282E89EE0DC
:105510000E94FA078091E10084FF2DC08091E20093
:1055200084FF29C080E189BD82E189BD89B5982FBA
:10553000917080FFFBCF8091D8008F7D8093D80041
:105540008091E1008F7E8093E1008091E2008F7E68
:105550008093E2008091E20081608093E20080917C
:105560009E02882309F487C084E080939D0286E828
:105570009EE00E94FA078091E10083FF2BC080919A
:10558000E20083FF27C08091E100877F8093E100E4
:1055900082E080939D0210929E028091E1008E7FB6
:1055A0008093E1008091E2008E7F8093E200809101
:1055B000E20080618093E20042E060E080E00E94CF
:1055C00035098091F00088608093F0008AE89EE0C1
:1055D0000E94FA07FF91EF91BF91AF919F918F9138
:1055E0007F916F915F914F913F912F910F900FBEDF
:1055F0000F901F9018951092770280917602882361
:1056000009F43DCF80919D028430C1F49091E9006E
:105610009F702091EC00822F817020FD80E8892B03
:1056200095E09093E9009091EB0090FF04C0909179
:10563000EE0097FD08C08F708093E900109276020B
:105640001ECF1092F1009091E80095FDFACF909155
:10565000E80090FFF0CF9091E8009E779093E800EB
:10566000EACF19BC10929D028EE79EE00E94FA07D5
:105670001092780230CF8091E30087FD93E0909301
:105680009D0275CFCDB7DEB7AB970FB6F894DEBFEE
:105690000FBECDBF84B7877F84BF0FB6F894A8959F
:1056A00080916000886180936000109260000FBE5E
:1056B00080E890E00FB6F8948093610090936100C9
:1056C0000FBE85B7806885BF85B7806885BF83ECCE
:1056D00090E19093A7018093A6010E949C080E94EC
:1056E00067098091E20084608093E2007894809161
:1056F0009D028823A1F01091E9001F709091EC00A9
:10570000892F817090FD80E8182B1092E90080911C
:10571000E80083FD0E94F7111F701093E90082E0FA
:1057200084BD93E095BD9AEF97BD80936E0029E705
:1057300031E062E871E001E010E0D90150E040E0C2
:105740008D918F3F91F0E82FE295EF70F0E0D1A0BE
:105750008F70780101C0EE0C8A95EAF79E2D909526
:105760009D2191A382A18E2982A34F5F5F4F433079
:10577000510531F72D5F3F4F62177307F1F6109215
:1057800052021092730210925302109274021092FD
:1057900054021092750290E080E00E94BC328A3E72
:1057A0009E4F11F00E94791B82E090E00E94AE3281
:1057B00080936D020E948D0C909351028093500251
:1057C0000E94B60B8FEB9DE50197F1F700C000003A
:1057D0000E94B60B8091730280FF17C06FEF83E2C7
:1057E00090E00E94C2326FEF84E290E00E94C232E9
:1057F0006FEF85E290E00E94C2326FEF7FEF90E0A2
:1058000080E00E94E0320E942B0A83E090E00E9438
:10581000AE32682F70E090E080E00E943710609117
:10582000AE027091AF028091B0029091B1020E94DD
:105830004E1A83E290E00E94AE32813209F051C5E7
:1058400084E290E00E94AE32883009F04AC585E2D9
:1058500090E00E94AE32883109F043C58091550234
:105860008111E0C080916D0280FF14C084ED9DE045
:105870009F938F930E94930880916D020F900F90D9
:1058800080FF08C08EEB9DE09F938F930E9493084A
:105890000F900F9090E080E00E94BC328A3E9E4FB5
:1058A00081F080916D0280FF08C086E99DE09F93A2
:1058B0008F930E9493080F900F900E94791B0E9473
:1058C000D31188E090E00E94B63260936E0270932C
:1058D0006F0280937002909371026E7FD1F4809179
:1058E0006D0280FF08C08DE49DE09F938F930E941E
:1058F00093080F900F900E94D31188E090E00E94CF
:10590000B63260936E0270936F0280937002909330
:1059100071020E94110B80916D0280FF76C084E3BA
:105920009DE09F938F930E94930880916D020F904A
:105930000F9080FF6AC080916E0281701F928F93DA
:1059400087E19DE09F938F930E94930880916D0261
:105950000F900F900F900F9080FF57C080916E02B4
:1059600086951F928F938CEF9CE09F938F930E945C
:10597000930880916D020F900F900F900F9080FF11
:1059800044C080916F021F928F9382EE9CE09F93A0
:105990008F930E94930880916D020F900F900F904B
:1059A0000F9080FF32C0809170021F928F9388EC1D
:1059B0009CE09F938F930E94930880916D020F90BB
:1059C0000F900F900F9080FF20C0809171021F9266
:1059D0008F938EEA9CE09F938F930E94930880910F
:1059E0006D020F900F900F900F9080FF0EC080916E
:1059F00072021F928F9382E99CE09F938F930E9483
:105A000093080F900F900F900F9010926402809166
:105A10006E0280FF04C060E086950E94911981E0CB
:105A2000809355025198599A5098589A89B1869501
:105A30008170489962C090E0892B809368028BEE58
:105A40009DE0909357028093560282E191E09093FB
:105A500059028093580289E69EE00E94FA078091DD
:105A60009D028530C1F485E69EE00E94FA0710E1B0
:105A700002E180919D02853009F441C00E94E2114B
:105A80000E94000B10925C0280915B0281110E94C7
:105A90003C1B0E94E1140E94B60B81110E943C0A3B
:105AA0004AE6442E42E0542E53E7652E52E0752E0E
:105AB00010E000E06FEFC62E6DE0D62E0BA7F301CD
:105AC00021903F01F20131902F01321082C00F5F0F
:105AD0001F4F0330110591F78FEF8EA38FA318A6E8
