:100000000C9437020C947E020C947E020C947E02B7
:100010000C947E020C947E020C947E020C947E0260
:100020000C947E020C947E020C9426180C94E21719
:100030000C94DA1C0C947E020C947E020C947E02CA
:100040000C947E020C947E020C947E020C947E0230
:100050000C947E020C94B61C0C947E020C947E02CE
:100060000C947E020C947E020C947E020C947E0210
:100070000C947E020C947E020C947E020C947E0200
:100080000C947E020C947E020C947E020C947E02F0
:100090000C947E020C947E020C947E020C947E02E0
:1000A0000C947E020C947E020C947E02000855FF94
:1000B000FFFF00000000000800FFFFFF000000003D
:1000C000000880FFFFFF0000000000081EDADAFFD2
:1000D0000000000000010101010101010101020213
:1000E00002020202020202030303030303030304E6
:1000F00004040404040405050505050606060606B1
:10010000070707070708080808090909090A0A0A6A
:100110000B0B0B0C0C0C0D0D0D0E0E0E0F0F0F100C
:100120001011111112121313141415151616171796
:10013000181819191A1A1B1B1C1D1D1E1E1F202002
:10014000212222232424252626272829292A2B2C4C
:100150002D2D2E2F30313232333435363738393A6F
:100160003B3C3D3E3F404142434445464748494A67
:100170004C4D4E4F50515354555658595A5B5D5E35
:100180005F616264656668696B6C6D6F70727375D0
:1001900077787A7B7D7E8082838587888A8C8E8F34
:1001A00091939596989A9C9EA0A2A3A5A7A9ABAD62
:1001B000AFB1B3B5B7BABCBEC0C2C4C6C9CBCDCF50
:1001C000D1D4D6D8DBDDDFE2E4E7E9EBEEF0F3F5FE
:1001D000F8FAFDFFFFAA7F55402223252628292A69
:1001E0002C2D2F3032333536383A3B3D3E4042439A
:1001F0004547494A4C4E5051535557595A5C5E60D9
:1002000062646668696B6D6F71737577797B7D7FEA
:1002100081838587898A8C8E90929496989A9C9EE9
:100220009FA1A3A5A7A8AAACAEAFB1B3B4B6B8B905
:10023000BBBCBEBFC1C2C3C5C6C7C9CACBCCCDCE6D
:10024000D0D1D2D2D3D4D5D6D7D7D8D9D9DADADB50
:10025000DBDBDCDCDCDCDCDDDDDDDDDCDCDCDCDCDC
:10026000DBDBDBDADAD9D9D8D7D7D6D5D4D3D2D21B
:10027000D1D0CECDCCCBCAC9C7C6C5C3C2C1BFBE03
:10028000BCBBB9B8B6B4B3B1AFAEACAAA8A7A5A36E
:10029000A19F9E9C9A98969492908E8C8A8987852D
:1002A00083817F7D7B79777573716F6D6B6968660C
:1002B0006462605E5C5A5957555351504E4C4A49DE
:1002C00047454342403E3D3B3A3836353332302F86
:1002D0002D2C2A292826252322010011500100AEA9
:1002E000001601B3000401060119010100125001BA
:1002F00000C35CC45CC55CCF5CD05CD15C01001306
:100300005001000100010001000100010001000195
:100310000010500100010001000100010001000176
:1003200000CA00C000B600AC0000001E0F050004AB
:100330007F3F1F643214643214783C1E1E140A0579
:1003400005010980A101850319012AB700150126BD
:10035000B700950175108100C0050C0901A1018548
:100360000419012AA002150126A002950175108129
:1003700000C005010906A1018505050719E029E767
:10038000150025019508750181020507190029EF5F
:100390001500250195F0750181020508190129054F
:1003A000950575019102950175039101C00501093B
:1003B00006A101050719E029E71500250195087533
:1003C0000181029501750881010507190029FF15B2
:1003D0000026FF009506750881000508190129050A
:1003E000950575019102950175039101C009023BC4
:1003F00000020100A0FA0904000001030101000944
:1004000021110100012240000705810308000A09AB
:100410000401000103000000092111010001226D07
:10042000000705820320000A1201100100000008E5
:10043000EDFE606001000102000112035200410064
:1004400054004D00490050004100440000001A03D0
:100450004D0041004E00550046004100430054004D
:100460005500520045005200000004030904112405
:100470001FBECFEFDAE0DEBFCDBF04B603FE27C05C
:1004800080917A0290917B02A0917C02B0917D02D2
:100490008730904BA740B04BD1F410927A02109263
:1004A0007B0210927C0210927D0214BE84B7877F7B
:1004B00084BF0FB6F894A8958091600088618093FE
:1004C0006000109260000FBEE0E0F8E3099522E0C2
:1004D000A6E9B1E001C01D92AA37B207E1F711E029
:1004E000A0E0B1E0EEEDFCE302C005900D92A6396C
:1004F000B107D9F70E9403190C94631E0C940000F5
:10050000E8EDF0E080818E7F80831092E20010920F
:10051000DA001092E100A0EEB0E08C9181608C9343
:1005200080818F77808319BCA7EDB0E08C918E7F9E
:100530008C9380818F7E8083109239020895209160
:10054000E4003091E50095E6A9012091EC00822FAE
:10055000817020FF06C08091E80080FF06C080E027
:1005600008952091E80022FD1AC08091630288233B
:1005700089F0853089F08091EB0085FD0FC02091D6
:10058000E4003091E50042175307F9F29150E1F68B
:1005900084E0089582E0089583E0089581E008955D
:1005A000EF92FF920F931F93CF937C018B010E94D8
:1005B0009F02C82F811117C08091E80085FD0BC0F4
:1005C0008091E8008E778093E8000E949F02882344
:1005D00099F3C82F08C0F70181917F018093F10042
:1005E0000150110949F78C2FCF911F910F91FF9066
:1005F000EF9008958091650287FF13C08091E80015
:1006000082FF06C08091E8008B778093E80004C0E9
:10061000809163028111F2CF089580916302882353
:10062000D9F38091E80080FFF8CF8091E8008E77C1
:10063000ECCF982F9093E900242F762F50E0891764
:1006400031F07091EC002091ED005091F00021FD0F
:1006500007C09F5F973071F78093E90081E00895AC
:100660003091EB003E7F3093EB003091ED003D7F09
:100670003093ED003091EB0031603093EB007093DC
:10068000EC002093ED005093F0002091EE0027FD48
:10069000E0CF80E00895CF92DF92EF92FF920F9328
:1006A0001F93CF93DF93C8EDD0E088818F7E88833E
:1006B000E7EDF0E080818160808384E082BF81E0AB
:1006C0008093390288818E7F888302EE10E0F801E2
:1006D00010821092DA0081EEC82ED12CF601108221
:1006E00088818F77888388818068888388818F7DDF
:1006F000888319BC10926302109264021092620205
:100700001092610290EEE92EF12CF70180818B7F2F
:10071000808388818160888342E060E080E00E947D
:100720001903F60180818E7F8083F80180818160CA
:100730008083808188608083F70180818E7F8083C1
:10074000888180618883DF91CF911F910F91FF9005
:10075000EF90DF90CF900895FC0180916B02909113
:100760006C0286179707A0F06115710529F4909126
:10077000E8009E779093E80090E06115710551F4D0
:10078000911108C08091E80082FF34C080E0089594
:10079000BC01F2CF809163028823C1F18530C1F1A1
:1007A0008091E80083FD30C08091E80082FDEACFAF
:1007B0008091E80080FFE1CF8091F3002091F2006A
:1007C000382F6115710519F02830310558F091E086
:1007D0002830310509F090E02091E8002E77209331
:1007E000E800CBCF81918093F100615071092F5FB8
:1007F0003F4FE7CF80916302882341F0853041F07D
:100800008091E80083FFBECF81E0089582E00895E3
:1008100083E00895089580E008950895809140024E
:1008200008952FB7F89480916D0290916E02A09177
:100830006F02B09170022FBF089520911C012223F6
:10084000C9F02091140227FF15C0E62FE695E69522
:10085000E695EE31D8F4E80FF92FF11D677021E02D
:1008600030E001C0220F6A95EAF7209582812823A3
:1008700022830895FC01329608962191621303C0E9
:10088000DF0111971C92E817F907B9F70895209135
:100890001C012223C1F02091140227FF14C0E62F6F
:1008A000E695E695E695EE31F8F4E80FF92FF11D9F
:1008B000677021E030E001C0220F6A95EAF782817B
:1008C000822B82830895FC0132962FEF30E0419114
:1008D000641751F02F3F19F4411101C0232F3F5FDE
:1008E0003630A9F72F3F09F40895820F911D27FD97
:1008F0009A95FC016283089580910B0290912402E5
:10090000892B90910A02892B80939801E09119021A
:10091000F0911A02309799F090911C01992349F0B7
:100920009091140297FF05C08093990185E0809310
:1009300098010280F381E02D88E991E009940895FF
:10094000E92FEE0F9E0F890F982F97708695869549
:10095000869525E0829FF0011124E050FE4F50E083
:1009600040E080E0219130E0092E02C036952795C5
:100970000A94E2F721703327042E01C0220F0A9453
:10098000EAF7822B4F5F5F4F4530510559F70895C5
:10099000E92FEE0F9E0F890F982F977041E001C04D
:1009A000440F9A95EAF786958695869595E0899FF6
:1009B000F0011124E050FE4F30E020E070E0519152
:1009C000DF011197CB01022E02C0969587950A94FC
:1009D000E2F7817081958527842385278C932F5F8B
:1009E0003F4F2530310559F70895882341F0809510
:1009F00090910B02892380930B020C947C04089540
:100A0000882339F090910B02982B90930B020C9451
:100A10007C0408952091FD013091FE0128173907CB
:100A200071F09093FE018093FD01E0911902F09125
:100A30001A02309721F00084F185E02D0994089581
:100A40002091FB013091FC012817390771F0909338
:100A5000FC018093FB01E0911902F0911A0230979A
:100A600021F00680F781E02D0994089590E080E060
:100A70000E94200590E080E00E940A051092240266
:100A800010920A020C947C0460930C0270930D0285
:100A900080930E0290930F020C943605882379F10F
:100AA0009CEF980F913A38F4682F88E991E00E9402
:100AB0001D040C947C0490E2980F983088F48770A1
:100AC00021E030E0A90102C0440F551F8A95E2F7EA
:100AD000CA01809590910B02892380930B02E9CF84
:100AE0009BE5980F933020F490E080E00C94200573
:100AF000885A873120F490E080E00C940A0508952C
:100B0000CF93C82F882309F467C08CEF8C0F813AEC
:100B1000C0F580911C01882311F18091140287FF98
:100B20001EC0EC2FE695E695E695F0E0E856FE4F00
:100B3000828190E04C2F477021E030E002C0220F0C
:100B4000331F4A95E2F782239323892B91F06C2F70
:100B500088E991E00E941D040E947C040AC0EAE931
:100B6000F1E080EA91E02191C21789F38E179F0787
:100B7000D1F76C2F88E991E00E944704CF910C9443
:100B80007C0480E28C0F883068F4C77021E030E08C
:100B900001C0220FCA95EAF780910B02822B809345
:100BA0000B02ECCFEBE5EC0FE33040F4F0E0E85B58
:100BB000FE4F808190E0CF910C942005C85AC73138
:100BC00058F4EC2FF0E0EE0FFF1FE55BFE4F808145
:100BD0009181CF910C940A05CF910895E09119026B
:100BE000F0911A02309721F00190F081E02D0994E4
:100BF00080E00895FA01811101C0FB010994809100
:100C00003A02982F9E7F29F48170826080933A0285
:100C100008958635E8F381708465F8CFAF92BF926E
:100C2000DF92EF92FF920F931F93CF93DF93082FE2
:100C3000162FE901E42FF0E0EC52FF4F611110C0D4
:100C4000E4915E2F4E2F4983E8835A83DF91CF9141
:100C50001F910F91FF90EF90DF90BF90AF9008959C
:100C6000E62EF12C4491D42EE42FF0E026E0829F72
:100C7000C00111242FEF30E0B9010E94091D802F1F
:100C800090E0880F991F55E5569FD001579FB00DF2
:100C900011248A1B9B0B982F990F890F5901AE18AD
:100CA000BF08AE9ED001AF9EB00DBE9EB00D112408
:100CB0005B2F189F80011124012F11275901A01AC1
:100CC000B10AAE9E8001AF9E100DBE9E100D112484
:100CD0005901A81AB108AE9CC001AF9C900DBE9CF2
:100CE000900D1124892F9927281B390B2E9FC001A5
:100CF0002F9F900D3E9F900D1124E92F62307105BA
:100D0000A1F050F46115710509F49DCF61307105B2
:100D100081F0EB2F512F97CF6430710569F080F08F
:100D20006630710509F48FCFF4CFE42F4B2F592F84
:100D30008ACFE42F412F87CFEB2F542F492F83CF1A
:100D40004B2F5D2DE12F7FCF972F70E023E0929FF7
:100D5000600D711D1124FB0149E0849FE00DF11D20
:100D60001124EE0FFF1FE752FD4F25913491C90169
:100D70002238310591F1C0F52133310509F490C0D5
:100D800028F52932310509F484C02A32310509F4E5
:100D90008EC0211540E5340708F09DC0211540E4C0
:100DA000340708F01FC12F3B310508F087C0283AEF
:100DB000310508F00CC1253A310508F0FFC0243098
:100DC000310500F521303105E9F03CC0253331050E
:100DD00009F458C029333105E1F62091140223703B
:100DE00089F080EE90E00895233E310571F158F4CA
:100DF000203E3105E9F0223E310559F620911402DA
:100E000022FD1EC00895263E310551F1273E3105D1
:100E100071F1243E310509F0BCCF2091150221FF6C
:100E2000F1CF8091140284FD0DC087EE90E008950B
:100E30002091140220FD05C13091150230FFE2CF50
:100E400024FF02C190E080E0DDCF2091140222FD5A
:100E5000FEC03091150230FDC4CF24FFD3CFF2CFB6
:100E60002091140223FFCECF24FDECCFDECF2091C2
:100E7000140223FDEFC03091150231FFEECF84EE56
:100E800090E008952091140225FFBCCF89E290E004
:100E900008952091140225FFB5CF85E390E00895D1
:100EA0002091140226FFAECF8AE290E008952091AF
:100EB000140226FFA7CF81E390E00895213E31057B
:100EC00008F2283E310508F49DCF3A9521153F419F
:100ED00008F498CFB7CF211583E5380738F52115E9
:100EE00092E5390708F087C0211541E5340708F07D
:100EF0007DC0C90164E0969587956A95E1F7382F22
:100F00003370822F86958695837040E2849FC0015E
:100F10001124932B237041E050E002C0440F551F71
:100F20002A95E2F7842B952B9C680895211589E575
:100F30003807F0F4211598E5390708F06FC021153E
:100F400044E5340708F07ECFA9014370552781E0BE
:100F500090E002C0880F991F4A95E2F726952695E2
:100F600040E2249F90011124822B932B9A680895CC
:100F700021158AE5380708F065CF822F8F704091E0
:100F8000140242FF05C023FF4EC0822F8770846089
:100F90009091150290FF07C0982F9871983009F032
:100FA00048C0877F816044FD877E94E03695279511
:100FB0009A95E1F72F70922F90690895255AE22FA4
:100FC000F0E0E85BFE4F808190E090640895285A3D
:100FD000E22FF0E0EE0FFF1FE55BFE4F8081918175
:100FE00094640895C9019F70906A0895922F88278C
:100FF000816F906A0895A9014370552781E090E0C0
:1010000002C0880F991F4A95E2F72695269540E27F
:10101000249F90011124822B932B86CF922F882717
:10102000806F906A089522FFB3CF822F8B70886003
:10103000AFCF982F9171913009F0B5CF8E7F886036
:10104000B2CF89E390E0089583EE90E0089582EEB8
:1010500090E0089586EE90E00895BF92CF92DF92DF
:10106000EF92FF920F931F93CF93DF938C01C09069
:101070001002D0901102E0901202F09013028091C1
:101080000C0290910D02A0910E02B0910F02C82A9D
:10109000D92AEA2AFB2ACFE1D0E0BC2ED701C6012B
:1010A0000C2E04C0B695A795979587950A94D2F70C
:1010B00080FD0EC0219788F7B12C8B2DDF91CF9149
:1010C0001F910F91FF90EF90DF90CF90BF90089508
:1010D000B8018C2F0E94A406019761F3EECFCF9345
:1010E00084E090E00E94B81DC82F82E290E00E9448
:1010F000B81D982F8C2FCF910895CF93DF9300D0F8
:101100000F92CDB7DEB790916302943019F58983C1
:101110007B836A8382E08093E9008FEF9091E800FF
:10112000815095FD06C095ED9A95F1F7000081116B
:10113000F5CF8091E80085FF0DC050E040E063E00E
:1011400070E0CE0101960E94D0028091E8008E7777
:101150008093E8000F900F900F90DF91CF9108954A
:10116000BC0184E00C947D08BC0183E00C947D08F4
:10117000CF93DF93EC0180911C018823B1F1809122
:10118000140287FF32C060E282E08093E9008FEFB3
:101190009091E800815095FD06C095ED9A95F1F784
:1011A00000008111F5CF8091E80085FF1BC0809180
:1011B0001C0170E050E040E0811104C050E040E0CC
:1011C00068E070E0CE010E94D0028091E8008E7746
:1011D0008093E80080E2FE01A1E4B2E001900D926C
:1011E0008A95E1F7DF91CF91089568E081E0CDCF56
:1011F0001F93CF93DF93182FEB010E948005209758
:1012000031F4812FDF91CF911F910C944E058FE91E
:101210009FE00197F1F700C000002197F0CF0F93F6
:101220001F93CF93DF93C62FD42F022FFC0182810F
:101230008823A1F0609373020E94110490937202BC
:1012400080937102C77081E001C0880FCA95EAF7E8
:10125000DF91CF911F910F910C9400058091730243
:10126000681342C020917102309172024FB7F89416
:1012700080916D0290916E02A0916F02B091700208
:101280004FBF821B930B883C910570F510E21D0F38
:101290006D17B9F080E2860F883040F4C77081E0A6
:1012A00001C0880FCA95EAF70E94F504183048F487
:1012B00081E09D2F977001C0880F9A95EAF70E94F0
:1012C000000570E060E0802F0E94F808183098F464
:1012D000D77081E001C0880FDA95EAF7DF91CF91EE
:1012E0001F910F910C94F504C77081E001C0880F25
:1012F000CA95EAF7F3CFDF91CF911F910F9108952F
:10130000CF92DF92EF92FF926B017C010E94FF056A
:10131000B701A60188E090E0FF90EF90DF90CF90BA
:101320000C94DE1D80913E02882319F08150809339
:101330003E0260913A0270913B0280913C02909192
:101340003D020C94800980913E02833018F48F5F37
:1013500080933E0260913A0270913B0280913C0280
:1013600090913D020C948009EAE3F2E083E08083EF
:1013700011828FEF828383831482608171818281E5
:1013800093810C94800910920B0280911C01EAE970
:10139000F1E0882359F08091140287FF07C08EE1A5
:1013A000DF011D928A95E9F70C94360586E0F8CFA7
:1013B0001F93CF93DF93CDB7DEB7AA970FB6F894FC
:1013C000DEBF0FBECDBF85E692E02091F100FC01AB
:1013D0002193CF01F2E08D369F07B9F78091660225
:1013E000833009F46FC0B8F4813009F446C082300C
:1013F00009F4B0C08091E80083FF7BC28091650250
:10140000909166029A3008F074C2E92FF0E0EB592F
:10141000F14E0C94311D8A3009F48BC08B3009F4E5
:101420006EC0893039F780916502813219F7809159
:10143000690290916A020297E8F68091E800877F3E
:101440008093E8008091E80082FF37C09091F3001C
:101450008091F200029729F48091F1008B7F813016
:1014600021F48091F100809340028091E8008B7715
:101470008093E8000E94FA02BDCF80916502813A14
:1014800009F0B8CF8091E800877F8093E8008091D1
:10149000690290916A02892B61F460E281E492E032
:1014A00070E00E94AC038091E8008B778093E800A5
:1014B000A1CF60E090E080E0F3CF809163028111E2
:1014C000C1CF98CF80916502813A09F093CF809186
:1014D000690290916A02892B09F08CCF8091E80013
:1014E000877F8093E8008091E80080FFFCCF8091A7
:1014F0001C018093F1008091E8008E77B9CF809134
:101500006502813209F076CF8091690290916A027A
:10151000892B09F06FCF8091E800877F8093E800E6
:101520000E94FA028091670280931C010E94C30905
:1015300061CF80916502813209F05CCF8091E80033
:10154000877F8093E8000E94FA028091680280936E
:101550003F0250CF80916502813A09F04BCF8091D4
:10156000E800877F8093E8008091E80080FFFCCF4F
:1015700080913F02BECF803899F0823809F0B9C11E
:10158000809169028F70873008F0B3C18093E900C1
:101590008091EB0085FB882780F91092E90006C056
:1015A0008091610290916202911182609091E800B5
:1015B000977F9093E8008093F1001092F100809162
:1015C000E8008E7792C1882309F480C1823009F047
:1015D00090C180916702811183C1809169028F70EF
:1015E0002FEF280F263008F084C18093E900209166
:1015F000EB0020FF75C1933031F48091EB008062E5
:101600008093EB006DC19091EB0090619093EB00A3
:1016100021E030E001C0220F8A95EAF72093EA002A
:101620001092EA008091EB008860EACF811161C1DD
:10163000109167021F778091E3008078812B80935F
:10164000E3008091E800877F8093E8000E94FA021F
:101650008091E80080FFFCCF8091E3008068809358
:10166000E30082E0111183E08093630242C180585D
:10167000823008F03EC180916702909168028C3DF3
:1016800023E09207A1F583E08A838AE289834FB73A
:10169000F894DE01139620E03EE051E2E32FF0E003
:1016A00050935700E49120FF03C0E295EF703F5F35
:1016B000EF708E2F90E0EA30C0F0C7968D939D9327
:1016C0002F5F243159F74FBF8091E800877F8093C7
:1016D000E8006AE270E0CE0101960E94AC038091BE
:1016E000E8008B778093E80004C1C096E7CF409173
:1016F000690250916A02292F33272330310509F4FA
:1017000044C078F52130310509F46FC08BE390E0D7
:10171000EDEEF3E02230310509F0EBC02091E80056
:10172000277F2093E80020916B0230916C02821792
:10173000930708F49C0140E02115310509F064C0CD
:10174000411162C08091E80082FDC9CF809163029F
:10175000882329F2853019F28091E80083FFF2CFC7
:10176000BECF21323105A9F12232310509F0C1C0C5
:101770004115510509F443C04130510509F0B9C084
:101780008DE690E0E0E4F3E0C9CF99278130910540
:10179000C1F0009759F0029709F0ABC0EAE3F4E01A
:1017A000E4918E2F90E0EAE3F4E007C0EAE6F4E08B
:1017B000E4918E2F90E0EAE6F4E0009709F499C0F6
:1017C000ADCFEEE4F4E0E4918E2F90E0EEE4F4E0AF
:1017D000F4CF4115510571F04130510509F089C030
:1017E00089E090E0E8E1F4E099CF82E190E0E8E27E
:1017F000F4E094CF89E090E0EFEFF3E08FCF80E466
:1018000090E0EDEAF3E08ACF80916302882309F447
:1018100066CF853009F463CF8091E80083FD5FCF08
:101820008091E80082FD8ECF8091E80080FF84CF18
:101830009091F3008091F2002115310519F0883064
:10184000910550F041E0089709F040E08091E800F0
:101850008E778093E80070CF44914093F1003196E9
:10186000215031090196E8CF803809F042C08091BB
:10187000E800877F8093E800809164028093F10004
:101880009ECE811136C010916702123090F5809182
:10189000E800877F8093E800109364020E94FA02B8
:1018A000112311F084E005C08091E30087FDFACF99
:1018B00081E08093630242E061EC81E00E941903C1
:1018C00042E261EC82E00E94190313C0809167023A
:1018D000813079F481E0933009F080E080936202F6
:1018E0001092E9008091E800877F8093E8000E94D1
:1018F000FA028091E80083FF0AC08091E800877FA8
:101900008093E8008091EB0080628093EB00AA96C0
:101910000FB6F894DEBF0FBECDBFDF91CF911F9100
:10192000089560913A02669570E04BE050E084E0E3
:1019300091E00E94AB1D892B19F481E080932C0269
:101940000E941104909326028093250208955F92CD
:101950006F927F928F929F92AF92BF92CF92DF92BF
:10196000EF92FF920F931F93CF93DF9300D000D09D
:101970000F92CDB7DEB780913A0280FD0AC0EBEB43
:10198000F1E0118210821282339621E0E33DF207EA
:10199000C1F780901702909018028114910409F405
:1019A00057C080FF55C0D12CC12C66246394712C84
:1019B00053E0552E80912D0293010C2C01C0220F73
:1019C0000A94EAF7822309F43BC0F601EE0FFF1FE9
:1019D000E80DF91DE590F490E114F104C9F145E03A
:1019E00050E0B701CE0101960E94A21D09810F3F70
:1019F00039F18A81800F9927991F8930910514F058
:101A000088E090E05C01AA0CBB1C8A0D9B1DFC01C8
:101A1000E554FE4F5F01059D8001112405541E4FC2
:101A20000A151B0520F0F5E0EF0EF11CD8CF980148
:101A30004D816C818B810E940E060D5F1F4FF0CF90
:101A40002FEFC21AD20A38E0C316D10409F0B2CF80
:101A50006E9A3EB13F7B2EB120644FB7F8948BEB6A
:101A600091E0FC015191CF0168E02EB9000000C067
:101A700057FF3EB9550F000000C000C000C03EB97E
:101A800000C06A9591F7F1E0833D9F0751F74FBF82
:101A90008FE594E00197F1F700C000000F900F90E0
:101AA0000F900F900F90DF91CF911F910F91FF90AA
:101AB000EF90DF90CF90BF90AF909F908F907F90EE
:101AC0006F905F9008954F925F926F927F928F9286
:101AD0009F92AF92BF92CF92DF92EF92FF920F93BD
:101AE0001F93CF93DF93FC016280448081E0848365
:101AF000E9EDF1E07490E8E5F2E0E491C3EDD1E0C6
:101B00003BEBE32E31E0F32E4BEFC42E41E0D42E1D
:101B100052E0A52EBB24B39488248A94912C55249A
:101B20005A94E7190E2F10E082E0861530F080916C
:101B30003B02888380913C028983411021C01B8233
:101B40001A8297014A81698188810E940E06259632
:101B500083E0E80EF11CCC16DD0631F7DF91CF9162
:101B60001F910F91FF90EF90DF90CF90BF90AF90BB
:101B70009F908F907F906F905F904F900C94A70CE8
:101B80008B818823E9F081508B83859DC0011124CE
:101B90006C8170E00E94091DFB01FF27E752FE4F98
:101BA0008491E82FE719E59DC0011124B8010E9436
:101BB000091D80913D02689FB00111247A83C1CF35
:101BC0000E94921D20913D02269521582A9DA00138
:101BD0002B9D500D1124452F5527841795070CF088
:101BE000B0CF82E0861588F40E94921DB4010E9455
:101BF0001D1D88830E94921D20913C022695622F14
:101C000070E00E941D1D280F29831A8280913D02D9
:101C1000893C20F088EC8C838B8393CF8431D8F778
:101C200084E1F9CFEF92FF921F93CF93DF93EC0102
:101C30008BEBE82E81E0F82E10E08C81970140912B
:101C40003D0260913C02810F0E940E06115E83E00E
:101C5000E80EF11C183F89F70E94A70C9A818C812D
:101C600090FF08C08F5F8C83DF91CF911F91FF9011
:101C7000EF9008958150F7CFCF92DF92EF92FF92CD
:101C80000F931F93CF93DF93FC018281DD24DA94BD
:101C900080FD02C0DD24D394CBEBD1E010E000E066
:101CA000198218821A8294E0E92EF12CC12C8091BD
:101CB000B8018C0D8930CCF18770082E000C990B7F
:101CC0008017910791F480913D028E9DA0018F9D18
:101CD000500D112455954795559547959E01609156
:101CE0003C0280913B020E940E06CD0CF1E0EF1AFF
:101CF000F108E9F60F5F1F4F23960830110581F6B2
:101D00000E94A70C8091B80191E0D91214C08111F2
:101D100010C087E08093B801DF91CF911F910F91A0
:101D2000FF90EF90DF90CF90089587FFC6CF885F38
:101D3000C4CF8150EFCF90E0019687709927EACF0A
:101D40000F931F93CF93DF93CBEBD1E0FE01118272
:101D500010821282339681E0E33DF807C1F710E06C
:101D600000E08091B901082E000C990B08171907A3
:101D70008CF180911001082E000C990B80179107AF
:101D80004CF19E0140913D0260913C0280913B02EA
:101D90000E940E060F5F1F4F23960830110509F7AA
:101DA0000E94A70C80910F019091B901980F909318
:101DB000B90120911001280F20931001121614F47C
:101DC00097301CF0819580930F01DF91CF911F9187
:101DD0000F910895198218821A82DCCF8F929F92F8
:101DE000AF92BF92CF92DF92EF92FF920F931F9329
:101DF000CF93DF93EC014C81042F10E09801D801C0
:101E00000E94541E9B01AC010E941F1E4B015C01ED
:101E1000E0E2F0E0E01BF10BA5E5B0E0AC019B01D6
:101E20000E941F1E6B017C019F01DF010E94371D74
:101E30009B01AC010E942A1E9B01AC01280D391D9B
:101E40004A1D5B1DC701B6010E94321EF22E822F71
:101E500090E039E23F15D8F143E0249F900111242E
:101E600035952795122F10959BEBC92E91E0D92E11
:101E700000E085E5E82EEF188E2D01FD8F2D9601EF
:101E8000412F60913C020E940E060F5F53E0C50E89
:101E9000D11C083089F70E94A70C9C8181E099230E
:101EA00019F0903219F48FEF809311018091110194
:101EB000890F8C83DF91CF911F910F91FF90EF904D
:101EC000DF90CF90BF90AF909F908F90089525E5C1
:101ED00030E0A901481B590BCA019A01220F331F98
:101EE000280F391F37FFBCCF2F5F3F4FB9CFEF927D
:101EF000FF920F931F93CF93DF938C01CBEBD1E035
:101F0000F12CE12CF801948160913C0280913B021C
:101F1000F4E0EF16F104FCF49923F9F09E014091EE
:101F20003D020E940E062FEFE21AF20A239688E085
:101F3000E816F10439F70E94A70CF801848190E0BB
:101F40000196817099278483DF91CF911F910F9122
:101F5000FF90EF900895992309F39E0140E0E1CFAF
:101F600090913A0290FF0CC0EBEBF1E0818360832B
:101F70004283339691E0E33DF907C1F70C94A70C37
:101F800008950F931F93CF93DF9300D00F92CDB797
:101F9000DEB78C018091BA0181110AC09E012F5FCA
:101FA0003F4F4FEF6FEF0E940E068A818093BA0178
:101FB000F8016481613069F08091BA0140E06623E4
:101FC00061F040E0623011F44091BA0180E060E0DD
:101FD00004C06091BA0140E080E00E94B00FF801B7
:101FE000848190E0019663E070E00E941D1D84836F
:101FF0000F900F900F90DF91CF911F910F91089547
:10200000CF93DF9300D00F92CDB7DEB790913A0215
:1020100090FF0AC09E012F5F3F4F0E940E064B812A
:1020200069818A810E94B00F0F900F900F90DF910D
:10203000CF910895CF93DF93EC01EC81F0E0E7526C
:10204000FE4F4491EAE3F2E0628181810E94001038
:102050008C818F5F8C83DF91CF910895CF93DF9335
:10206000EC01EAE3F2E0438162818C810E9400107E
:102070008C818F5F8C83DF91CF9108957F928F92B7
:102080009F92AF92BF92CF92DF92EF92FF920F9307
:102090001F93CF93DF9300D00F92CDB7DEB7182FE9
:1020A000D62E042FC22E90913A0290FF29C0E92F1C
:1020B000E695AE2FB0E0A35EBE4F8C9180932B02CD
:1020C0009E7F923071F59E012F5F3F4F812F0E94BE
:1020D0000E064B8169818A810E94B00F10933B02EA
:1020E000D0923C0200933D02CC2051F060913A0224
:1020F00070913B0280913C0290913D020E948009C8
:102100000F900F900F90DF91CF911F910F91FF9043
:10211000EF90DF90CF90BF90AF909F908F907F9087
:102120000895823019F400913D02D8CF863019F419
:1021300010913B02D3CF8930D9F3893179F6E95137
:102140002E2F2170722EE695F0E0EC52FE4F859016
:10215000949099243BEBE32E31E0F32EB12CA12C8B
:10216000C50123E0969587952A95E1F7711013C074
:10217000810F9701402F6D2D0E940E06A80CB91CEF
:1021800083E0E80EF11C23EDE21621E0F20641F7B0
:102190000E94A70CA3CF212F281B822FEACFEAE3AE
:1021A000F2E0438128E0421B08F440E021E0628134
:1021B00081810C943E10EAE3F2E0438128E0420F73
:1021C00008F44FEF21E0628181810C943E10EAE334
:1021D000F2E0628128E0621B08F460E021E04381C4
:1021E00081810C943E10EAE3F2E0628128E0620F04
:1021F00008F46FEF21E0438181810C943E10EAE303
:10220000F2E0818121E04381628188500C943E108C
:10221000EAE3F2E0818121E043816281885F0C94EE
:102220003E1090913A0290FF36C09170811129C002
:10223000926090933A02662351F060913A02709155
:102240003B0280913C0290913D020E948009609186
:102250003A02669570E04BE050E084E091E00E9425
:10226000AB1D892BA9F010922C0281E080932802EB
:1022700020E040913D0260913C0280913B020C9431
:102280003E108B3210F09465D4CF880F982BD1CFAD
:102290000E94910CEACF089521E030E0A90102C02C
:1022A000440F551F8A95E2F7CA0120912D0266233B
:1022B00069F0822B80932D0280912C02811109C03C
:1022C00080913A0260E086950C94111180958223EA
:1022D000F1CF0895CF93C82F82E08093790284EFE5
:1022E00091E0909378028093770261E08C2F0E94B6
:1022F0004C118091790281508093790221E030E085
:1023000001C0220FCA95EAF780917602822B809352
:1023100076020E9411048C509E4F90937502809318
:102320007402CF910895CF92DF92EF92FF920F93B4
:102330001F936B017C01A7016627772780E1411578
:1023400051056105710519F4B701A60180E0052F5B
:10235000162F272F3327011511052105310519F0F7
:10236000885FB901A8018A019B01F4E036952795A1
:1023700017950795FA95D1F7011511052105310536
:1023800019F08C5FB901A8018A019B01E2E0369542
:10239000279517950795EA95D1F7011511052105A0
:1023A000310519F08E5FB901A801769567955795AB
:1023B0004795452B462B472B09F08F5F813099F0CD
:1023C000882369F0823089F0833089F0C701B60133
:1023D0001F910F91FF90EF90DF90CF90089580E0D4
:1023E0000E946A11F3CF81E0FBCF82E0F9CF83E056
:1023F000F7CF0E94931160931002709311028093A3
:102400001202909313020C94360561E00C941111A2
:102410006AEE7EEF90E080E00E94EA1D60E082E0DC
:1024200090E00E94CC1D60E083E090E00E94CC1D13
:1024300010920C0210920D0210920E0210920F02D6
:1024400060E084E090E00E94CC1D60E082E290E0D9
:102450000E94CC1D60E085E090E00E94CC1D60E011
:1024600086E090E00E94CC1D6FEF87E090E00E9434
:10247000CC1D40E050E0BA0188E090E00E94DE1DF3
:1024800060E08DE090E00E94CC1D40E050E0BA0199
:1024900088E190E00E94DE1D60E087E190E00E940C
:1024A000CC1D40E050E0BA018CE190E00E94DE1DBE
:1024B00070E060E080E290E00E94EA1D40E050E0C1
:1024C000BA0188E190E00E94DE1DEAE3F2E080813B
:1024D0008160808386950E94051221E048EC6FEFB1
:1024E00080E00E943E108BE00E94051240E050E028
:1024F000BA018FE090E00E94DE1D40E050E0BA019A
:1025000083E190E00C94DE1D80913A028695815023
:1025100009F48AE261E00C94111180913A028695E7
:102520008F5F8B3208F081E061E00C941111909183
:102530003A0290FF07C09695981720F0961710F46E
:102540000C948D120C9405124F925F926F927F92B1
:102550008F929F92AF92BF92EF92FF920F931F9331
:10256000CF93DF9300D000D00F92CDB7DEB77C01C0
:10257000FC0183819481892B39F01081B180812FF6
:102580008B218F3F09F027C40F900F900F900F9071
:102590000F90DF91CF911F910F91FF90EF90BF901F
:1025A000AF909F908F907F906F905F904F90089525
:1025B0000E942D08082F682F89819A810E94C804E3
:1025C000E12FF0E023E0B29EE00DF11D112439E08F
:1025D000039FE00DF11D1124EE0FFF1FE752FD4F89
:1025E00005911491043F8CE5180709F496C038F55D
:1025F000093DECE51E0709F48CC00A3DFCE51F0708
:1026000009F497C0083D2CE5120739F526E241EEA2
:1026100061EEC7010F900F900F900F900F90DF9118
:10262000CF911F910F91FF90EF90BF90AF909F902F
:102630008F907F906F905F904F900C940F09063FA2
:102640003CE5130709F471C008F46BC027E245EEBE
:1026500066EE073F9CE51907E1F2F70192819923A5
:1026600009F4CAC3109273020230FCE51F0708F494
:1026700041C106312CE5120738F098012B5F3C452B
:102680002930310508F036C10E946F089093150279
:102690008093140200313CE5130709F4FAC008F0F6
:1026A00088C008309CE5190709F4E9C008F057C054
:1026B0000430FCE51F0709F4DAC0F0F502303CE510
:1026C000130709F4CAC003301C4509F4CCC060915B
:1026D00014021091150284E090E00E94CC1D612F3D
:1026E00082E290E00E94CC1D0F900F900F900F900F
:1026F0000F90DF91CF911F910F91FF90EF90BF90BE
:10270000AF909F908F907F906F905F904F900C94C0
:10271000C30927E245EE65EE7CCF26E241EE60EE8E
:1027200078CF27E245EE64EE74CF26E241EE62EE0A
:1027300070CF28E241E0EFCF809114028061063033
:102740009CE5190709F48CC0809114028860073059
:102750001C4508F485C080911402806281C080917C
:1027600014028D7F0C30FCE51F0709F479C070F46A
:10277000809114028C600A303CE5130709F470C0A4
:1027800008F481C0809114028E7F6AC08091140287
:10279000877F0E309CE5190709F462C0809114020E
:1027A0008B7F0F301C4508F45BC0809114028F7E34
:1027B00057C00C3FFCE51F0709F45DC030F503313D
:1027C0003CE5130709F46DC078F401319CE5190765
:1027D00009F463C002311C4509F079CF0E94C30996
:1027E000809114028F773CC00531FCE51F0709F486
:1027F00060C008F474C08091150281600B3F1C45D5
:1028000009F065CF8093150262CF01158DE5180799
:1028100009F44BC088F4809115028D7F0E3FECE5E2
:102820001E0781F3809115028E7F0F3F1C4550F3E8
:10283000809115028360E6CF02302DE5120709F47E
:1028400057C008F442C060E003301D4509F03FCF97
:102850008EE090E00E94CC1D3ACF809114028160FE
:102860008093140234CF809114028260F9CF80915A
:1028700014028460F5CF809115028260C3CF8091ED
:1028800014028064EDCF0E94C30980911402806815
:10289000E7CF809114028F7DE3CF809114028F7B6C
:1028A000DFCF80911402837FDBCF809115028C7F74
:1028B000A9CF8091140282FB992790F921E09227F9
:1028C00090FB82F990FB83F9CBCF80911502982F72
:1028D000909591708E7F892B90FB81F993CF0E9408
:1028E000C30990911402892F97FB87F98058B8CFBC
:1028F00061E0AECF80910B020631ECE51E0709F0D6
:1029000088C28A7A91E009F490E09093FF0169E22D
:10291000811165E388E991E00E9447040F900F90D0
:102920000F900F900F90DF91CF911F910F91FF901B
:10293000EF90BF90AF909F908F907F906F905F903F
:102940004F900C947C0480913A0280FF2DC08E7FC2
:1029500080933A0260913A0270913B0280913C026E
:1029600090913D020E94800910922C02FFEF20E717
:1029700032E0F15020403040E1F700C000000F90FD
:102980000F900F900F900F90DF91CF911F910F91AB
:10299000FF90EF90BF90AF909F908F907F906F903F
:1029A0005F904F900C94A70C816080933A028695BB
:1029B0000F900F900F900F900F90DF91CF911F917C
:1029C0000F91FF90EF90BF90AF909F908F907F906E
:1029D0006F905F904F900C94051244E852E16DE8BF
:1029E00072E10F900F900F900F900F90DF91CF91A9
:1029F0001F910F91FF90EF90BF90AF909F908F909D
:102A00007F906F905F904F900C94FA054DE852E1E3
:102A100064E872E1E6CF48E051E16FEF70E1E1CFA9
:102A200047EE50E163EF70E1DCCF4FEC50E16BED2E
:102A300070E1D7CF4BED50E16FEC70E1D2CF43EABC
:102A400059E062E979E0CDCF81E0B2CF65E082E084
:102A50000F900F900F900F900F90DF91CF911F91DB
:102A60000F91FF90EF90BF90AF909F908F907F90CD
:102A70006F905F904F900C94971268E086E0E8CFDB
:102A800064E18FE0E5CF67E185E1E2CF62E289E1D1
:102A9000DFCF83E28DCF0E94C309FFEF24E33CE048
:102AA000F15020403040E1F700C0000087E797E791
:102AB000909301088093000888E19AE00FB6F8949B
:102AC000A895809360000FBE90936000FFCF0F9099
:102AD0000F900F900F900F90DF91CF911F910F915A
:102AE000FF90EF90BF90AF909F908F907F906F90EE
:102AF0005F904F900C940812C8010E94A004B82E59
:102B0000BAC1183009F47DC0193009F0C7C19F70EF
:102B1000812C912C5401839404C0880C991CAA1C0C
:102B2000BB1C9A95D2F7882309F43FC1609110022B
:102B300070911102809112029091130268297929F3
:102B40008A299B290E94F911802F0E940005A6C1A5
:102B5000F92FFF70BF2E907F19F0B29430EFB3229F
:102B60008823C9F0BB2069F080E2800F883010F024
:102B700001110BC080910B02B82AB0920B020E9487
:102B80007C04802F0E94800589C180912402B82A8C
:102B9000B0922402F4CF802F0E944E05BB2009F48E
:102BA0007DC1B094005E083010F0A11008C0809183
:102BB0000B02B822B0920B020E947C046FC180917C
:102BC0002402B822B0922402F7CF292F2695269509
:102BD000237051F0213009F061C1882379F0802FF2
:102BE00093700E940A055AC1882329F0802F9370A0
:102BF0000E94200553C190E080E0FACF90E080E091
:102C0000F0CF292F237009F065C0811147C1802FB3
:102C1000829586958770880F880F602F6F70862E3B
:102C2000912CB12CA12C082E04C0880C991CAA1C34
:102C3000BB1C0A94D2F740E050E0BA0104FF0FC079
:102C40004FE050E060E070E004C0440F551F661F85
:102C5000771F8A95D2F74095509560957095969517
:102C600096959370923019F1D8F440900C025090E0
:102C70000D0260900E0270900F02913069F04829A9
:102C800059296A297B29CB01BA0164217521862142
:102C900097210E94440502C184289528A628B728B8
:102CA000CB01BA01682979298A299B29F2CF4829C1
:102CB00059296A297B2980900C0290900D02A090DE
:102CC0000E02B0900F02CB01BA01682579258A2542
:102CD0009B25DFCF2695882311F0292F21702223F1
:102CE00009F4DCC0802F829586958770880F880F45
:102CF000602F6F70862E912CB12CA12C082E04C051
:102D0000880C991CAA1CBB1C0A94D2F740E050E026
:102D1000BA0104FF0FC04FE050E060E070E004C073
:102D2000440F551F661F771F8A95D2F7409550951F
:102D300060957095969596959370923019F1D8F4A8
:102D40004090100250901102609012027090130295
:102D5000913069F0482959296A297B29CB01BA01A8
:102D600064217521862197210E94F91197C084283A
:102D70009528A628B728CB01BA01682979298A297C
:102D80009B29F2CF482959296A297B298090100272
:102D900090901102A0901202B0901302CB01BA01E0
:102DA000682579258A259B25DFCF802F0E94F50491
:102DB000C501B40160957095809590958090100242
:102DC00090901102A0901202B09013026821792114
:102DD0008A219B21C9CF85E0DE01119601900D92D9
:102DE0008A95E1F7F701228189819A812111E0CB4F
:102DF0000E94A004082FE4CB06311C4571F5809198
:102E0000FF0169E2811165E388E991E00E941D04F8
:102E100085CD82720D3C2CE5120709F410CE08F026
:102E200098C0073CECE51E0709F4F5CD08F06DC02D
:102E3000043C2CE5120709F4D0CD08F057C0033C40
:102E40008CE5180709F47FCD01158CE5180709F406
:102E500022CE0F3D1C4509F43ACEF70100811181C5
:102E6000992309F449CEC8010E942D08B82E682F75
:102E7000C8010E94C804B8018B2D0E94A406082F27
:102E8000A82EF7018281192F12951F70143009F4B2
:102E90009CCE08F036CE123008F45ACE212F28509E
:102EA000330B2230310510F40E94EE0585E0F70166
:102EB000DE01119601900D928A95E1F789819A8140
:102EC0000E94A0049A81E981F0E033E0939FE00D35
:102ED000F11D112499E0899FE00DF11D1124EE0FE1
:102EE000FF1FE752FD4F859194914ECB053CECE5D9
:102EF0001E0709F48BCD4FEF50E168E071E1063C0D
:102F0000FCE51F0709F46DCD9FCF0A3C2CE51207A5
:102F100009F48BCD78F4083CECE51E0709F480CD6C
:102F200043EF50E167EE70E1093CFCE51F0709F44F
:102F300058CD8ACF0B3C2CE5120709F47BCD42E932
:102F400059E063EA79E00C3C3CE5130709F449CD0C
:102F50007BCF023D8CE5180709F492CDA0F40F3C1D
:102F6000FCE51F0709F472CD08F46ECD003D3CE589
:102F7000130709F482CD013D8CE5180709F064CFF1
:102F80006EE089E065CD053DECE51E0709F47ECDD8
:102F900060F4033D2CE5120709F475CD88E1043D8A
:102FA0003CE5130709F404CD4FCF063D8CE5180727
:102FB00009F46FCD6AE285E20E35EDE51E0709F4EE
:102FC00047CD42CF1F920F920FB60F9211242F932D
:102FD0003F934F935F936F937F938F939F93AF93A1
:102FE000BF93CF93DF93EF93FF93D091E900DF700E
:102FF0008091EC00C82FC17080FDC0E81092E900FC
:103000008091F000877F8093F00078940E94D80927
:103010001092E9008091F00088608093F000CD2B41
:10302000CF70C093E900FF91EF91DF91CF91BF91F5
:10303000AF919F918F917F916F915F914F913F9150
:103040002F910F900FBE0F901F9018951F920F9207
:103050000FB60F9211242F933F934F935F936F936B
:103060007F938F939F93AF93BF93EF93FF93809141
:10307000E10082FF09C08091E20082FF05C08091DB
:10308000E1008B7F8093E1008091DA0080FF24C013
:103090008091D80080FF20C08091DA008E7F8093DD
:1030A000DA008091D90080FFA1C080E189BD82E172
:1030B00089BD09B400FEFDCF81E080936302809159
:1030C0003902811109C00E9480020E944B03809145
:1030D000E20084608093E2008091E10080FF17C0ED
:1030E0008091E20080FF13C08091E2008E7F809388
:1030F000E2008091E20080618093E2008091D8003C
:1031000080628093D80019BC85E08093630280912F
:10311000E10084FF2FC08091E20084FF2BC080E19A
:1031200089BD82E189BD89B5982F917080FFFBCF61
:103130008091D8008F7D8093D8008091E1008F7EB0
:103140008093E1008091E2008F7E8093E200809185
:10315000E20081608093E20080916402882309F498
:103160004BC084E0809363020E94C3090E94EE0575
:103170000E94910C8091E10083FF27C08091E200C2
:1031800083FF23C08091E100877F8093E10082E08C
:1031900080936302109264028091E1008E7F80939D
:1031A000E1008091E2008E7F8093E2008091E20056
:1031B00080618093E20042E060E080E00E941903B9
:1031C0008091F00088608093F000FF91EF91BF91B3
:1031D000AF919F918F917F916F915F914F913F91AF
:1031E0002F910F900FBE0F901F90189519BC109241
:1031F00063021092390270CF8091E30087FD93E063
:1032000090936302B1CF00D000D00F92CDB7DEB75C
:1032100084B7877F84BF0FB6F894A895809160002B
:10322000886180936000109260000FBE80E890E09B
:103230000FB6F89480936100909361000FBE85B73C
:10324000806885BF85B7806885BF8BE094E09093E8
:103250009701809396010E9480020E944B03809107
:10326000E20084608093E200789480916302882376
:10327000A1F01091E9001F709091EC00892F8170EE
:1032800090FD80E8182B1092E9008091E80083FD02
:103290000E94D8091F701093E90082E084BD93E07A
:1032A00095BD9AEF97BD80936E00F2E8AF2EF1E0E6
:1032B000BF2E29E731E061E070E0D90150E040E045
:1032C0008D918F3F91F0E82FE295EF70F0E0F1A043
:1032D0008F708B0101C0000F8A95EAF7902F9095AF
:1032E0009F2191A382A1802B82A34F5F5F4F433028
:1032F000510531F72D5F3F4FA216B306F1F610923C
:103300001E021092210210921F02109222021092AD
:1033100020021092230290E080E00E94C61D8A3EA7
:103320009E4F11F00E94081282E090E00E94B81DAA
:10333000809335020E946F089093150280931402C7
:1033400083E090E00E94B81D682F70E090E080E07C
:103350000E94440560911002709111028091120246
:10336000909113020E94931180911602811136C030
:1033700090E080E00E94C61D8A3E9E4F21F00E9490
:1033800008120E94B40988E090E00E94C01D60937A
:103390003A0270933B0280933C0290933D026E7F11
:1033A00071F40E94B40988E090E00E94C01D60930F
:1033B0003A0270933B0280933C0290933D020E943C
:1033C000FF0510922C0280913A0280FF04C060E059
:1033D00086950E94111181E08093160266E971E0E2
:1033E000E2E36E2EE2E07E2E22E931E0E4E9F1E054
:1033F00041E050E01191812F82958F7090E0DC01C7
:103400009196FC9091971F70E12E6A0101C0CC0C3F
:103410001A95EAF70C2D00950F2191960C93919730
:1034200092961C9192971C2992961C93D901FD901B
:103430009D010F2D02950F7010E0D80191969C9080
:10344000BF2DBF70FB2E6A0101C0CC0CBA95EAF704
:10345000DC2CD094D920D8019196DC929197929649
:10346000DC909297CD289296CC92DC0190968C912C
:1034700090E002C095958795EA94E2F78170D801B3
:1034800090960C9110E002C015950795FA94E2F71A
:1034900090E000FD92E0892BD3018D933D016E17E2
:1034A0007F0709F0A7CF81E293E090931802809301
:1034B000170282E191E090931A0280931902EEE1E3
:1034C000F2E069E771E010E07B0150E040E030E0BD
:1034D000D7012D917D012F3FC1F0822F82958F70F2
:1034E00090E0DC0190968C9190E02F7002C0959551
:1034F00087952A95E2F780FD54C081E090E0042E84
:1035000001C0880F0A94EAF7382B4F5F5F4F4330B2
:103510005105F1F68081831709F445C0308381E0BD
:10352000182B31966D5F7F4FA616B70669F61123EB
:10353000E1F1B1E0B0931D020E94110490931C02CE
:1035400080931B0220911B0230911C024FB7F8940C
:1035500080916D0290916E02A0916F02B091700205
:103560004FBF821B930B049770F080911E028093D3
:10357000210280911F028093220280912002809379
:10358000230210921D021123A1F08FB7F8944091ED
:103590006D0250916E0260916F02709170028FBF48
:1035A00008C080E0B1CF80E0BBCF80911D028111C7
:1035B000C9CFA1E2B2E0E6E3F2E010E000E0C02E05
:1035C0009D918191891709F44EC18927282F217077
:1035D000E22E80FD41C181FD41C182FF44C144E032
:1035E000E42E52E0D52EF92EFE2099249394F1106A
:1035F00001C0912C0E9411048160F11010922402EC
:10360000D982CA829B829D838C83CE0101960E94BF
:10361000A412F801EA5CFD4F8081E826E0828091E7
:103620002C028823D1F180912B02E0913A02E69599
:10363000E81BE0932702823009F029C1F0E0E45C46
:10364000FC4FE4910E2F10E02AE1E22E20E1F22E51
:1036500080912802882361F0109228020E941104B0
:10366000909326028093250210922A02109229023A
:103670000E941104E0912502F09126028E1B9F0BFF
:103680008F3F9F4750F4E00FF11FF0932602E09325
:10369000250285E292E0F701099580917602882360
:1036A00009F43EC00E941104209174023091750209
:1036B000821B930B8F3F9F4798F510E000E08091AD
:1036C000760290E0002E02C0959587950A94E2F765
:1036D00080FF1BC0809179028823B9F060E080FFF1
:1036E00061E0802F0E944C1180917902815080937B
:1036F00079020E9411042091770230917802820FA2
:10370000931F90937502809374020F5F1F4F0830D0
:103710001105A9F680917902811102C010927602FA
:1037200080E3E82E82E0F82E0EE212E092E9892E84
:1037300091E0992E24E9622E21E0722E32E3C32E0D
:1037400032E0D32E212C312C44E0442E512CD601D2
:10375000ED916D01EE0FEE0FD3012D913D01A22FE2
:10376000A295AF70B0E090968C9190E02F7002C05F
:10377000959587952A95E2F781709927D4014D9107
:103780004D01A42FA295AF70B0E090962C9130E03F
:103790004F7002C0359527954A95E2F7A90141700F
:1037A000552720FF02C042E050E0842BE82BD601D1
:1037B0001197EC93EF70F0E0EE57FE4F8081F70128
:1037C0009081890F808320E0843064F0D8018C914F
:1037D0008F5F8C9370E060E089EA31108EE40E9484
:1037E000F80821E0F70180818D3F64F4D8018C91C5
:1037F00081508C9370E060E08AEA31108BE40E9483
:10380000F80821E0F7018081082E000C990BB20125
:103810000E941D1DD7018D937D01222A0F5F1F4F2E
:10382000B1E03B12A0C0222059F08FB7F89440912C
:103830006D0250916E0260916F02709170028FBFA5
:103840000E94EE0590913402891709F438CE0E9447
:10385000EE058093340233CED12CC5CE32E0E32E78
:10386000DD24D394C0CE0F5F1F4F0330110509F044
:10387000A6CE0E9411042FEF29832A831B82816028
:103880009D838C83CE0101960E94A412C8CE8630FF
:1038900059F4F0E0E75CFC4FE4910E2F10E09EE25B
:1038A000E92E90E1F92ED4CE893061F4E695F0E06E
:1038B000EA5CFC4FE4910E2F10E082E1E82E8EE0EE
:1038C000F82EC6CE8F3061F4E695F0E0ED5CFC4F4B
:1038D000E4910E2F10E0BCE3EB2EBEE0FB2EB8CE41
:1038E000853159F4F0E0E05DFC4FE4910E2F10E0DB
:1038F000A0EAEA2EAEE0FA2EABCE08E210E07EEEB1
:10390000E72E7EE0F72E883109F4A2CE833249F407
:10391000EEE2F3E005911491F1ECEF2EFFE0FF2EC3
:1039200097CE04EF11E067E7E62E6FE0F62E8432C3
:1039300009F48ECE00ED17E05AE0E52E54E0F52EA6
:10394000853209F085CE8E2F63E00E94FD1CE92FA1
:10395000F0E0E55DFC4FE4910E2F10E0E3E6EE2E83
:10396000EDE0FE2E75CE33243394F1CE78941F9281
:103970001FB61F9211248F939F93AF93BF93809193
:103980006D0290916E02A0916F02B091700201964B
:10399000A11DB11D80936D0290936E02A0936F02E2
:1039A000B0937002BF91AF919F918F911F901FBEF6
:1039B0001F9018951F921FB61F9211248F939F93EB
:1039C000AF93BF9380916D0290916E02A0916F02B0
:1039D000B09170024196A11DB11D80936D0290932C
:1039E0006E02A0936F02B0937002BF91AF919F914E
:1039F0008F911F901FBE1F901895991B79E004C0EE
:103A0000991F961708F0961B881F7A95C9F780951D
:103A10000895AA1BBB1B51E107C0AA1FBB1FA61715
:103A2000B70710F0A61BB70B881F991F5A95A9F767
:103A300080959095BC01CD01089597FB072E16F453
:103A4000009407D077FD09D00E94091D07FC05D01E
:103A50003EF4909581959F4F0895709561957F4FA5
:103A60000895EE0FFF1F0590F491E02D09940E9438
:103A7000541E332312F48A1B9B0B0C94411D0E948D
:103A8000541EB7FF0895821B930B08958F929F9247
:103A9000AF92BF92CF92DF92EF92FF92CF93DF93DC
:103AA000EC01688179818A819B81611571058105AD
:103AB000910521F464E279ED8BE597E02DE133EF98
:103AC00041E050E00E94001E49015A019B01AC01F7
:103AD000A7EAB1E40E941F1E6B017C01ACEEB4EFBB
:103AE000A50194010E942D1EDC01CB018C0D9D1DB2
:103AF000AE1DBF1DB7FF03C00197A109B048888361
:103B00009983AA83BB839F77DF91CF91FF90EF903A
:103B1000DF90CF90BF90AF909F908F9008950E94BC
:103B2000461D089580E091E00E94461D0895B0E092
:103B3000A0E08093000190930101A0930201B09353
:103B400003010895FB01DC0102C005900D92415074
:103B50005040D8F70895FC014150504030F001909A
:103B60000616D1F73197CF01089588279927089530
:103B7000F999FECF92BD81BDF89A992780B5089535
:103B8000A6E1B0E044E050E00C94F21DA8E1B0E002
:103B900042E050E00C94F21D262FF999FECF92BD21
:103BA00081BDF89A019700B4021639F01FBA20BD02
:103BB0000FB6F894FA9AF99A0FBE08950396272F34
:103BC0000E94CD1D0E94CC1D252F0E94CD1D242FAB
:103BD0000C94CD1D0196272F0E94CD1D0C94CC1D59
:103BE000DC01CB01FC01F999FECF06C0F2BDE1BDBD
:103BF000F89A319600B40D9241505040B8F70895AC
:103C0000052E97FB1EF400940E94171E57FD07D047
:103C10000E94321E07FC03D04EF40C94171E5095E0
:103C20004095309521953F4F4F4F5F4F08959095A8
:103C30008095709561957F4F8F4F9F4F08950E949B
:103C4000541EA59F900DB49F900DA49F800D911DB3
:103C500011240895B7FF0C941F1E0E941F1E821B83
:103C6000930B0895A1E21A2EAA1BBB1BFD010DC0E8
:103C7000AA1FBB1FEE1FFF1FA217B307E407F5071C
:103C800020F0A21BB30BE40BF50B661F771F881FF8
:103C9000991F1A9469F760957095809590959B018E
:103CA000AC01BD01CF010895A29FB001B39FC00137
:103CB000A39F700D811D1124911DB29F700D811D58
:103CC0001124911D0895F894FFCFBB0AE30A790CE3
:0E3CD000E30A790C160B370B790C340C410CFF
:103CDE000100000001191A1B1C1D1E1F20212201AC
:103CEE0002010E04B8080D04B408B0080100010268
:103CFE000202020606060909090909090F0F0F0F2C
:103D0E000F0F151515181919191919191919191936
:103D1E002324252525252525818283E200E900EA35
:103D2E0000B500B600B700CD008301CC008A019229
:103D3E000194012102230224022502260227022ACF
:103D4E0002B300B4006F007000363394F6F7663598
:103D5E00349700FF0100010000FFFF000001000189
:063D6E00FF0090F591F446
:00000001FF
